:100000000040002011000000FD040000FD0400007D
:1000100010B501F039F900F035FC00F08FFA00005E
:1000200070B572B699221C4B1C4D1A601C4B953A48
:100030001A601C4B7C321A601B4B763A1A601B4AC2
:100040001B4B18201A6002221A4B00241A6012233C
:100050002B6001F071F8F022174B12011A60174A59
:10006000174B18491A604022174B0D201C60174B84
:100070001A6000F095FF0D2000F0BEFF144B200029
:100080001C6001F009F9112303222B60114B1A6047
:10009000114B1D321A6070BD000302403000104049
:1000A0000000044008000440000304403104000044
:1000B00008030440180304400003014040FF00808F
:1000C0000000014025130000280003400401014006
:1000D0000C02224030003040000E3F400000000083
:1000E0000000000000000000000000000000000010
:1000F0000000000000000000000000000000000000
:1001000010B5064C2378002B07D1054B002B02D0ED
:10011000044800E000BF0123237010BD4801002007
:1001200000000000FC1F0000084B10B5002B03D09E
:100130000749084800E000BF07480368002B00D1CA
:1001400010BD064B002BFBD09847F9E700000000DC
:100150004C010020FC1F0000B8000020000000003F
:1001600010B5054C200001F04FF820686368010BC2
:10017000000589B2184310BDAC010020F8B5FFF7A7
:10018000EFFF00250C0422002B00801859412B00A2
:10019000220C801A99410B04040C1C43584B594DF6
:1001A000E118594B0A091A40584B09011940584B9C
:1001B0000A43D21893082B40564D92002A4013430D
:1001C000554AAC46554E9B18554D5A085B00324077
:1001D0002B401343534A54499B18544A1F0A1B028D
:1001E0000F4013403B4307013A00F027504D3F03B7
:1001F0002B60504B174023401F434F4B4B4AFF1877
:100200003B0A3F0217400B404C4A3B439B183D4A78
:100210009F08DB43174062469B0013401F43484B37
:10022000394AFF18FB431B091340384A3F01174066
:10023000444A3B439B183A4A5F085B0037401340EF
:100240003B436B60F02307041B053B403E4F374A9E
:1002500027403B43F02707401F433C4B0002FF1859
:10026000FB433F021B0A17400B40394A3B439B1894
:100270001F09DB43244A1B011740244A13401F4334
:10028000344B204AFF18FF43BB0813406246BF00AF
:100290001740314A3B439B18214A5F085B003740B7
:1002A00013403B43AB602D4B1C40F0231B01184017
:1002B0000443E0436400400814400640284B2643B2
:1002C000F6183309F643104A360113400F4A164018
:1002D0001E43244B154AF618F34336021B0A1940F5
:1002E0003240214B0A43D218D243064993080B40AF
:1002F000614692000A401A431C4BD218EA60F8BDCE
:1003000059C9947F333333330F0F0F0FF0F0F0F0F0
:100310004E384E0ACCCCCCCCDC84235755555555A1
:10032000AAAAAAAA247BDCA8FF00FF0000FF00FF06
:10033000B4010020FFFFF0FF41BD4B3946F6AC3F52
:10034000DAE94D414299797E0FFFFFF02DB1F6B207
:10035000B2C3ED1B731F94F5DBAEE973FFF0FFFF33
:1003600038E47C2339DEC7D99A0FEC4100C1C62896
:100370000023F0B585B06946114A9A1812785A548C
:100380000133102BF7D1009B1FBA019B1EBA029BB1
:100390001DBA039B1CBAFFF7F1FE0A4B00201A6836
:1003A00097420AD15A68964207D19A68954204D179
:1003B000D868001B4342434158B2C0B205B0F0BDFB
:1003C000F0F7FF0FB401002010B590B040220B49A8
:1003D000684601F0D7F9002318006C4608495A42D4
:1003E00059180978A25C914201D00130C0B2013B9A
:1003F0001A004032F1D110B010BDC04600200000FC
:10040000FF27000010B50A2000F022FE094800F086
:1004100065F80A2000F01CFE8022074B52001A608B
:10042000064A074B1A604022064B1A6000F076FC21
:1004300010BDC046402000000003014041FF008085
:1004400000000140B000002010B500F0D1F800F02D
:10045000D1FF002811D1063000F0B4FF012000F0D8
:10046000BDFF00F0C7FF002803D100F0ABFFFFF78E
:10047000C9FF002000F0A6FF14E000F0DBFF002819
:1004800010D1063000F0BEFF012000F0C7FF00F0E1
:10049000D1FF002803D100F0B5FFFFF7B3FF002024
:1004A00000F0B0FFFFF764FF002805D0642000F0E3
:1004B000CFFD00F033FC08E0FFF786FF002801D1F4
:1004C00000F02CFC044800F009F8642000F0C0FDA6
:1004D00000F09CF8FEE7C046532000000FB400B5C2
:1004E000B5B036AA02CA02A8019201F075F902A8B5
:1004F00000F036F935B008BC04B0184710B501F06B
:1005000015F903680C2B00D1FEE7FEE7030010B5D8
:1005100080240849084A08686401C3189A1AA2424C
:1005200001DC0B6005E001F001F90C230360012000
:10053000404210BDBC00002018020020F8B5002584
:100540000F49104B01394A1C14D000221F685C6807
:100550009E68A018B24203D0B858A0500432F8E701
:100560000200DE68141AA64201D020C2FAE7103356
:100570000139E8E701F0E0F8FFF766FFFEE7C04663
:10058000010000001C210000002370B50B480C4C3A
:100590000C4D9A002100032B00D8A958013381503B
:1005A0002C2BF6D1FFF73CFD074B1A68002A00D12F
:1005B0001A608022054B92051A6070BD0000002071
:1005C000FD04000000000000B000002008ED00E085
:1005D0008021064A10B5136809060B4313600820F2
:1005E00000F00AFD00F096F810BDC046000025405E
:1005F00010B5054C2378002B03D100F01DF8012322
:100600002370FFF7E5FF10BD6401002010B508203E
:1006100000F0FCFC00F090F8054A082013685B002D
:100620005B0813600022034B1A6000F0F9FC10BD58
:1006300000002540880F254070B5002407210425BF
:100640001C4A1D4B08201A601C4B1D4A1C601D4B88
:100650001A601D4B1D4A13601D4A11601D4A063960
:1006600014601D4A11601D4A13601D4B1C601D4B18
:100670001D6000F0CBFC0321082000F09DFC1A490E
:10068000082000F08DFC194B1C60194B1C60194BA5
:100690001C60194B1C60194B1D60194B1C601A68BB
:1006A000184B1A80184B1C60184B1C60184B1C70A0
:1006B00070BDC0460C0000020000254040002540EF
:1006C00001000A0048002540070000800003254083
:1006D0000403254010032540440025400002254026
:1006E0000402254050002540E9140000880E2540F2
:1006F000C80E2540480F2540080F2540C80F25404B
:10070000880F25406C010020C8010020C401002092
:10071000CC010020F021054A13688B4360390B435C
:100720001360034B1A88034B1A60704700030240A2
:100730006C010020880F2540F021064A13688B4386
:100740001360054B1A68E423DB001340034A13804F
:100750007047C04600030240880F25406C0100200E
:1007600010B504000134631E1878002802D000F090
:10077000A1FEF7E710BD004770B506000D0014009C
:10078000002802D0002000F055FC00207519002C34
:1007900005D0013C2B191B78C018C0B2F7E770BD1B
:1007A000FF23020070B59A43C0B01300541C6A4680
:1007B000FF34D51A1E78EE540133A342FAD1C3B2E6
:1007C000D45C8C4205D0000AD15480B2110000F0F4
:1007D0003BFB40B070BD0000013810B50B2830D88D
:1007E0000902494200F002FF06080A0C0E1014121A
:1007F00016191B20174B13E0174B16E0174B0AE096
:10080000174B12E0174B0BE0174B09E0174B02E0B8
:10081000174B00E0174BC91817E0174B05E0174BB3
:10082000C9180878C0B214E0154BC9180A7848787E
:100830008C780002230418430300C8781343000691
:1008400006E0002000F0F6FB00210B78487800025B
:10085000184310BDC0FF0100C1FF0100C5FF01002A
:10086000C9FF0100D0FF0100D1FF0100D6FF010048
:10087000D2FF0100D4FF0100D8FF0100DCFF01001E
:10088000E0FF01000C4B10B51A68102313400B4A0F
:1008900000D113601368802B0DD1002402202100A9
:1008A0001460FFF799FFA04205D021000220FFF756
:1008B00093FFFFF760FF10BD54000340B00000201D
:1008C000F8B5010004000320FFF786FF21000600B1
:1008D0000420FFF781FF210007000620FFF77CFFBF
:1008E0000025012828D021000320FFF775FF0136DD
:1008F0003602F7192E0001300002B84209D20378FF
:100900005A1ED2B2FD2A00D80126ED18EDB20130F0
:10091000F3E721000120FFF75FFF6D42EBB20625F0
:10092000834209D1002E07D0044B24026042C01834
:100930000121FFF735FF00252800F8BDD1FF010098
:10094000F0B5C24CA54400F009FE62B6002700973E
:100950000197962103AC46ADFF23220049002800F1
:1009600000F004FE0028F4D12188062900D8AFE168
:100970002A780423012A5CD16E88F21D8A4200D9AC
:1009800086E0962149008A4200D981E0AA1992792D
:10099000172A4ED1F3189BB2002B08D0DCAAAC4921
:1009A000D21852181278013B801880B2F3E7AB19C5
:1009B0005A7940421B79120280B21A4308238242BC
:1009C00037D167E0342B00D0D6E0009B012B00D05C
:1009D0007EE1032E00D07BE180220021520091A80D
:1009E000802700F0D8FE7F00182191ABD819FF3185
:1009F00002ABF21EC91800F0C5FE0423F619FF333E
:100A0000B6B29E4200D01BE116228B21FF3202AB10
:100A10009B18490002AA521810781B78000218434C
:100A20008C4B0700984200D824E1FF3BFF3B00932A
:100A30000933002546A8012143702B0AC370002307
:100A400002AA06320170291D1580857089B200291D
:100A500009D0DCAC7E4E6418A419247801391B1926
:100A60009BB289B2F3E7DCA97B4C49195B420C19B4
:100A70009BB22370794C1B0A0C192370784B0735F5
:100A8000C91817230B70A9B27F3300F0A0FD60E7EF
:100A90000323CEE76B782C79180031380A282ED939
:100AA000704A1568002D26D0009A012A25D106AC7F
:100AB00002AA13725681002147AE0C22200005962F
:100AC00000F069FEA660210004A8A8472623A58897
:100AD000FF339D4202D9A368B34207D0A268002A1F
:100AE00001D1002D04D12368DBB2A3E70E23A0E7D8
:100AF0000E2315009EE705239CE7052399E700F0E8
:100B00007FFD0B001B00CFFF61FF4300CFFF4900BB
:100B10005D0061FF7B009200009B012B00D0D7E0BD
:100B2000002E00D0D4E03000FFF7CAFE434243411C
:100B30002B713300009D7DE7009B012B00D0C7E0A7
:100B4000012E00D0C4E0002C00D0C1E0464B1B6851
:100B50001B685A0CD2B2002A02D1DB03DB0D01E084
:100B600080239B002B711B0A6B71FF23AB71FE3B33
:100B7000EB71002304255DE7009B012B00D0A7E06B
:100B8000022E00D8A4E02FE7009B012B00D09FE0AD
:100B90000027DEE6009B012B00D099E02C33F519ED
:100BA000FF339D4200DD73E791ABD819320047A9AE
:100BB00000F0E8FD0023AFB21D003BE7062E00D099
:100BC00086E02A4A06AB94461000190014C814C1E6
:100BD0006246013EF6B29019A919007A0979884255
:100BE00076D1002EF5D147AA03CB03C201233700EB
:100BF0000093082533001DE7009B012B68D1032ECD
:100C000066D116228B21FF3202AB9B18490002AA43
:100C1000521816781B7836021E430E4B9E4259D945
:100C2000F63BFF3B05E70020FFF74AFE002802D114
:100C300080220F4B1A6000F095FC00F0FDF947E0B0
:100C400001230027009302333D00F3E68CFCFFFFF5
:100C5000A7FDFFFFFF010000ACFDFFFFADFDFFFFA3
:100C6000AEFDFFFF70010020C00000209C200000AE
:100C7000B0000020274B1B681A68130AD2B29BB23F
:100C8000002A01D001339BB26402381984B29C421D
:100C900014D3019B002B0BD180221900520006A80F
:100CA00000F079FD06A91C4800F0CEF8012301935D
:100CB00091A9200000F0C8F8002804D001230027E3
:100CC00000930933C0E70123070000930300BBE74B
:100CD0000423AEE680226102891909025200002035
:100CE000FFF74AFD0500002C0ED10B4B9E420BD1A5
:100CF00021000520FFF770FD21002D1A0620FFF7C7
:100D00006BFDEDB22D1AEDB26D4246AB1D710023A5
:100D100001258FE6C0000020FF01000070B5002013
:100D2000FFF7CEFD431E98410624134D40422B6829
:100D300004401A68C021C03A0020FFF71DFD6B680F
:100D40001B78181AC0B2834203D12B681B68002B92
:100D500002D1002000F06EF9084B19681A004029F2
:100D600001D0002C03D000231360FFF7E9FD80229F
:100D70001A6000F061F970BDC0000020B0000020D2
:100D800082B06A460B4B0C4900930C4B01930C4B01
:100D90001A600C4A1160C0461A68120F0F2A04D05C
:100DA0001A680020120F0A2A01D01868C0B202B0D7
:100DB0007047C046B6E900001600008074010020AC
:100DC0000800104004001040094B0A4A0A491A6002
:100DD0000A4A1160C0461A68120F0F2A04D01A6816
:100DE0000020120F0A2A01D01868C0B27047C0460E
:100DF00008001040B6E80000150000800400104014
:100E000082B06A460B4B0C4900930C4B01930C4B80
:100E10001A600C4A1160C0461A68120F0F2A04D0DB
:100E20001A680020120F0A2A01D01868C0B202B056
:100E30007047C046B6EA0000170000807401002029
:100E40000800104004001040F0B50024304BC7B03B
:100E5000029406000394984255D8A14253D08022B0
:100E600006A8520000F08EFC2A4B2B4D0493FF2362
:100E70002A492B4A04AF7B602F600A60C0462A686B
:100E80000191120F0F2A03D02A68120F0A2A01D0EB
:100E90002C681C400294029B002B36D100F0DDFA36
:100EA0000400FFF76DFF0390039B002B02D1FFF7B7
:100EB0008BFF0290029B002B16D11A4A1A4904920A
:100EC000049A0198360416430496134A2F60016071
:100ED000C0462968090F0F2903D01168090F0A2994
:100EE00001D01368DBB20293039B002B07D1FFF7FD
:100EF00087FF0390039B002B01D0039B02932000EC
:100F000000F0AFFA01E004230293029847B0F0BD6D
:100F1000FF010000B6D70000080010400400104098
:100F200004000080B6D800000500008070B5050000
:100F300000F093FA0400102D04D803210E4A136820
:100F40008B4307E0202D07D803210B4A13688B43FE
:100F500002390B4313600AE0302D05D80321064AFD
:100F600013688B430139F4E7002000F063F8200098
:100F700000F077FA70BDC04630001040024A034BC3
:100F800011680B401360704700002240FFFFFFBF55
:100F9000024B18684000C00F7047C0460000224056
:100FA0001B2800D901BE034B8000C31818681960C4
:100FB0007047C04640000020F8B504000E00032929
:100FC00000D901BE1B2C00D901BE032725003D40DE
:100FD000BD400635AF40AE4000F03FFAA408054BD7
:100FE000A400E4182368BB431E43266000F039FACE
:100FF000F8BDC04600E400E01F2318401E3B8340BC
:10100000014A13607047C04600E100E01F2318400A
:101010001E3B8340014A13607047C04680E100E0F8
:101020001F2318401E3B8340014A13607047C0468F
:1010300080E200E001BE7047034A044913689BB296
:101040000B4313607047C0460CED00E00400FA0546
:1010500070B5802504002D02064BAC4205D95868B6
:1010600000F0F2F9044BE418F6E79868604300F0EA
:10107000EBF970BDC80000200080FFFF37B500F01D
:10108000FDF8002842D000F0E8F91C21204B214A4D
:101090001B6812689B008A400B40920F1833D340A4
:1010A00080251D491D4A04000868ED0110401C4AB6
:1010B0005A435219D20B013A0243192B01D8194B4A
:1010C0000EE0194D19481818EB18A0251A3B0078A6
:1010D0001B786D031B182A43FF2B00D9FF239B05A8
:1010E0001A43134D0A602B6830200193FFF71EFF4F
:1010F0008021104AC905136814200B431360FFF7C1
:10110000A7FF019B20002B6000F0ABF937BDC04664
:10111000080F0340280003400800224000F800C0E8
:1011200040420F000000D43FAA2000004DF3FF0F03
:101130003000104000002240F7B50500183D0400C3
:10114000182D46D80126244B3700EB409F4340D151
:1011500000F083F90190FFF71BFF0097002802D0F1
:10116000FFF70CFF009607271C4E1D4A33681D49E8
:10117000BB4333601C4BE3181B78DBB213601B4A84
:101180001368BB4313601A4B0A68E31818787F236F
:101190009A43034013430B60322000F055F9182C9A
:1011A0000ED033681C3CA408BB433C401C43346055
:1011B000322000F049F93368AD08BB431D43356068
:1011C000009B012B01D1FFF759FF019800F049F96D
:1011D00000E001BEF7BDC04611111101080F034028
:1011E0000C0F0340180F03404DF3FF0F100F034087
:1011F00034F3FF0F10B5034B1B7B584300F024F969
:1012000010BDC046C8000020144B1A78144BD1B250
:1012100001601B781B020B431A000360114B1B7803
:101220001B041343104A0360127812061343036031
:101230000E4B1A780E4BD1B241601B781B020B4348
:101240001A0043600B4B1B781B0413430A4A43608C
:1012500012781206134343607047C04678F2FF0FBE
:1012600079F2FF0F7AF2FF0F7BF2FF0F7CF2FF0F94
:101270007DF2FF0F7EF2FF0F7FF2FF0F014B186828
:10128000C00F704700002240014A024B1A607047AD
:101290006588EDAC3800034070B5154D04002B682F
:1012A000144E9B0F9B07984215D0032233687C2075
:1012B000934333602B689B0F00D09030FFF79AFF69
:1012C00000F0CBF82B68A40F9B009B08A4071C43DD
:1012D0002C6000F0C6F803223368934319002B6892
:1012E0009A0F5342534101330B43336070BDC046E4
:1012F0000C0222401402224010B5040000F0ADF8A8
:101300000549064A0B681440054A134023430B6005
:101310000B6800F0A6F810BD10022240040404007F
:10132000FBFBFBFF042270B5224C2368134213D051
:1013300021490B6813420CD0204B5D6908681540A9
:10134000A84308605969914359619B68002B00D0FC
:1013500098470420FFF7D0FF80232268DB001A4261
:1013600015D015490A681A420DD0144A5569086803
:101370002B40984308605169114B0B405361D3686F
:10138000002B00D098478020C000FFF7B5FF8023D6
:101390002268DB021A420CD0074A12681A4204D0B3
:1013A000064B1B69002B00D098478020C002FFF736
:1013B000A3FF70BD10022240DC0000208C01002041
:1013C000FFFBFFFF034A044B116840020B40184328
:1013D0001060704708030440FFF1FFFF0823044931
:1013E000C0000A689A43D2B2034013430B607047AF
:1013F00000030440024B18680007C00F7047C04646
:1014000004030440034A044B116880010B40184355
:1014100010607047080004403FFEFFFF04230449AA
:1014200080000A689A43D2B2034013430B607047AE
:1014300000000440024B18684007C00F7047C046C8
:1014400004000440000000000230800803D0013096
:101450000238FCD1C046C0467047EFF3108072B628
:10146000704780F310887047084B094A1968136861
:101470000020994208D013680133412B00D10300AA
:101480000449C85C1360C0B27047C046C801002060
:10149000C4010020CD010020044B1868044B1A68D9
:1014A0001B68904200D24130C01A7047C80100202A
:1014B000C40100201F2204490B681340082BFBD0F5
:1014C000024B18607047C046080225404002254084
:1014D00070B504004518AC4204D02078FFF7EAFF4D
:1014E0000134F8E770BD0000134B70B51B68002B8A
:1014F00000D09847114B1B685B071CD520241F2088
:101500000F490B680133412B00D100230D4A1568A8
:101510000D4AAB4203D113680C4B1C7004E01268F7
:101520000B4DD2B2EA540B600A4B1B680342E8D160
:101530000422094B1A6070BD68010020CC0F2540C1
:10154000C8010020C401002040032540CC01002038
:10155000CD01002008032540C00F254010B5FFF73E
:1015600047F810BD10B5FFF751F810BDF8B50400ED
:101570000F0016000120002C28D0002926D00A25B3
:101580005D43FFF789FF002810D0FFF785FF0500B6
:10159000AE20FFF72FFEFFF77FFF8542F5D1390020
:1015A000AF4200D929003180651807E00120013DD4
:1015B000FFF74EFD002DE4D1102007E0AC4204D02F
:1015C000FFF752FF20700134F8E70020F8BD70B536
:1015D00001230C001500002805D0002903D0FFF7D7
:1015E00077FF00232C80180070BD000002B4714604
:1015F00049084900095C49008E4402BC7047C04656
:1016000003B47146490840004900095E49008E4410
:1016100003BC7047002243088B4274D303098B42FA
:101620005FD3030A8B4244D3030B8B4228D3030CB2
:101630008B420DD3FF22090212BA030C8B4202D354
:101640001212090265D0030B8B4219D300E0090A7C
:10165000C30B8B4201D3CB03C01A5241830B8B4285
:1016600001D38B03C01A5241430B8B4201D34B036E
:10167000C01A5241030B8B4201D30B03C01A5241D3
:10168000C30A8B4201D3CB02C01A5241830A8B4258
:1016900001D38B02C01A5241430A8B4201D34B0241
:1016A000C01A5241030A8B4201D30B02C01A5241A5
:1016B000CDD2C3098B4201D3CB01C01A5241830959
:1016C0008B4201D38B01C01A524143098B4201D393
:1016D0004B01C01A524103098B4201D30B01C01ABE
:1016E0005241C3088B4201D3CB00C01A5241830838
:1016F0008B4201D38B00C01A524143088B4201D365
:101700004B00C01A5241411A00D2014652411046C4
:101710007047FFE701B5002000F006F802BDC046A3
:101720000029F7D076E770477047C046014B18682C
:101730007047C046400100200E4B70B500251E00CA
:101740000D4CE41AA410A54204D0AB00F3589847FE
:101750000135F8E700F0D0FC084B00251E00084CCE
:10176000E41AA410A54204D0AB00F3589847013501
:10177000F8E770BD042100000421000004210000EE
:101780000C210000002310B59A4203D0CC5CC45455
:101790000133F9E710BD03008218934202D019709B
:1017A0000133FAE77047000030B59BB00091049117
:1017B00008496D4602910591012182244942E9813F
:1017C000A4006946AC8100F075F80023009A1370FC
:1017D0001BB030BDFFFFFF7F10B513000A000100F2
:1017E00002480068FFF7E0FF10BDC046400100203E
:1017F000F0B58E6885B007000C00039201939E42FD
:1018000043D890238A89DB001A423ED00325096918
:10181000236801985B1A029363695D43EB0F5D19BE
:10182000029B6D1001331B18AB4200D91D005305FC
:1018300010D52900380000F037FB061E14D0029A9C
:101840002169FFF79FFFA289194B134080221343A0
:10185000A38112E02A00380000F086FB061E0CD19E
:101860002169380000F0D4FA0C23402201203B60AB
:10187000A38940421343A38117E0029B2661F61817
:1018800026606561019EED1AA560019BB34200D2FE
:101890001E0032000399206800F0A5FA0020A3681A
:1018A0009B1BA36023689E19266005B0F0BDC0464F
:1018B0007FFBFFFFF0B59FB0029005938B890F006F
:1018C00016001B0610D50B69002B0DD1402100F02E
:1018D000EBFA38603861002804D10C23029A0138F1
:1018E0001360D8E040237B61002306AD6B61203399
:1018F0006B761033AB7634002378002B03D1A31B17
:10190000049312D003E0252BF9D00134F4E7A31B94
:10191000320039000298FFF76BFF431C00D1B4E09E
:101920006A69049B944663446B612378002B00D161
:10193000ABE00122002352426A6002A954325218DD
:1019400001342B60EB60AB601370AB65534E2178B4
:101950000522300000F03CFA002807D00123801B4C
:1019600083402A68013413432B60EFE72B68DA06C3
:1019700004D55322202102A8121811701A0704D589
:1019800053222B2102A81218117022782A2A03D080
:10199000099B00200A210EE0059A111D126805918D
:1019A000002A01DB099204E05242EA60022213435A
:1019B0002B6001340BE02278303A092A04D84B43DB
:1019C00001349B180120F6E7002800D00993237802
:1019D0002E2B1ED163782A2B0AD1059B02341A1DA7
:1019E0001B680592002B01DA01235B42079310E08C
:1019F00000230A201A0001346B602178303909294C
:101A000004D84243013452180123F6E7002B00D0DA
:101A10000792234E21780322300000F0D9F90028E4
:101A200006D04023801B83402A68013413432B6077
:101A3000217806221B48661C297600F0C9F9002887
:101A400012D0194B002B06D10722059B0733934375
:101A50000833059314E005AB00933A00134B2900BB
:101A6000029800E000BF07E005AB00933A000F4B7F
:101A70002900029800F08AF80390039B013304D0F8
:101A80006B69039A9B186B6135E7BB890B985B0602
:101A900001D5012040421FB0F0BDC046C320000068
:101AA000C9200000CD20000000000000F117000058
:101AB000F7B5170001938A680B6900900C009342F8
:101AC00000DA130022003B6043321278002A01D072
:101AD00001333B6023689B0602D53B6802333B60C1
:101AE000062523681D401ED0230043331B785A1E51
:101AF0009341226892061CD53020E11843310870CA
:101B000021005A1C45310978A21843320233117062
:101B10000FE022000123193201990098089EB04776
:101B2000431C0ED00135E3683A689B1A9D42F0DBF6
:101B3000DAE72200019943320098089DA847431C28
:101B400002D10120404220E006232068E1683A6883
:101B500003400025042B03D18D1AEB43DB171D40F6
:101B6000A3682269934201DD9B1AED180027BD424C
:101B70000AD0220001231A3201990098089EB0472A
:101B8000431CDED00137F2E70020FEBDF0B58BB07C
:101B900006920A0043320793059004920A7E0C00D5
:101BA000109B6E2A00D1ABE011D8632A22D009D84D
:101BB000002A00D1B5E0582A00D0C5E045310A70AE
:101BC000814A4FE0642A1DD0692A1BD0BCE0732AE9
:101BD00000D1AAE009D86F2A29D0702A00D0B3E03A
:101BE000202209680A43226037E0752A1FD0782A2C
:101BF00033D0A9E00E001A684236111D196013682F
:101C00003370A4E021681A68080606D4490604D592
:101C1000111D19600023D55E02E0111D19601568C1
:101C2000002D3BDA2D23049A6D42137036E02168B3
:101C30001A68080606D4490604D51568111D1960EE
:101C4000ADB202E0111D196015685F4B227E03934F
:101C500008276F2A1DD00A271BE022007821453271
:101C600011705A4A19680392081D226818600D689D
:101C7000100602D4500600D5ADB2D30702D52023FA
:101C80001A4322601027002D03D1202322689A4393
:101C900022602300002243331A7002E00A274A4BD5
:101CA00003936368A360002B09DB0422216891433E
:101CB0002160002D05D1049E002B11D07BE0002D6A
:101CC00079D0049E28003900FFF72AFD039B013ECE
:101CD0005B5C280033703900FFF79CFC051EF1D1D6
:101CE000082F09D12368DB0706D563682269934270
:101CF00002DC3023013E3370049B9B1B23612BE0ED
:101D000009681A68080607D4490605D5111D196027
:101D10001368A28A1A8004E0111D196013686269B1
:101D20001A600023049E236116E01A68111D1960D1
:101D3000166800216268300000F04AF8002801D0DF
:101D4000801B6060636803E0260042363270012326
:101D500023610023049A1370079B09AA00932100B2
:101D6000069B0598FFF7A4FE431C02D101204042C8
:101D700027E02369320006990598079DA847431C70
:101D8000F4D0236800259B070FD4099BE068984294
:101D900017DA180015E02200012319320699059878
:101DA000079EB047431CE1D00135E368099A9B1AAE
:101DB0009D42F0DBE9E72600039B42361B78337037
:101DC0008EE70BB0F0BDC046D4200000E520000037
:101DD000C9B28218904204D003788B4202D00130FD
:101DE000F8E70020704710B5884202D98B18984256
:101DF00001D3002305E09B1A013A08D3995C815472
:101E0000FAE7934203D0CC5CC4540133F9E710BD28
:101E100070B50500002944D00C1F2368002B00DAA0
:101E2000E418280000F0D8F81E4A13681100002BAF
:101E300002D16360146031E0A3420DD92268A0187A
:101E4000834203D118685B688218226063600C606B
:101E500024E0A24203D813005A68002AF9D11E6870
:101E60009819A0420BD12168711858181960824244
:101E700014D110685268411819605A600EE0A042EF
:101E800002D90C232B6009E021686018824203D13B
:101E9000106852684118216062605C60280000F0A0
:101EA0009CF870BDA8010020032370B5CD1C9D4394
:101EB000083506000C2D01D20C2501E0002D01DBB8
:101EC000A94202D90C23336048E0300000F084F8C6
:101ED000234B1C681A002100002913D00B685B1BE0
:101EE0000DD40B2B02D90B60CC181EE08C4202D112
:101EF000636813601AE04B6863600C0016E00C0026
:101F00004968E9E7174C2368002B03D1300000F043
:101F100051F820602900300000F04CF8431C18D024
:101F20000323C41C9C43A0420DD12560300000F067
:101F300054F8200007220B30231D9043C31A0ED003
:101F40005A42E2500BE0211A300000F033F8431CF3
:101F5000EBD10C233000336000F03FF8002070BD5F
:101F6000A8010020A4010020F8B506000C0015000F
:101F7000002904D11100FFF797FF040018E0002AA0
:101F800003D1FFF745FF2C0012E000F027F885424F
:101F90000ED929003000FFF787FF071E07D0210068
:101FA0002A00FFF7EFFB21003000FFF731FF3C0074
:101FB0002000F8BD002370B5064C05000800236022
:101FC000FEF7A4FA431C03D12368002B00D02B603A
:101FD00070BDC04610020020704770470B1F1A6882
:101FE000101F002A04DA891804390B68D018043845
:101FF00070470000002200002A00000000000000DE
:10200000F7FF7018B2C0300154144A1378184B10FF
:102010003C57F905F00038200020D80E2B053B6115
:102020000023E023FDC2F7FF7018B2C03001541541
:102030004A1D78184B1AF917F0000020D80C2D090A
:10204000626F6F746C6F6164657220737461727417
:102050000D0A0054686520626F6172642069732004
:102060006E6F74206163746976617465642C20708E
:102070006C6561736520616374697661746520695C
:102080007420776974682074686520616374697668
:10209000652E63796163640D0A000000B5116A253D
:1020A000003C0101D91F5DC38D2AEEDBC9B9AA9B93
:1020B0008E82766B60564D443B332C241D17100ADC
:1020C000044300232D302B2000686C4C00656667AC
:1020D000454647003031323334353637383941429E
:1020E0004344454600303132333435363738396170
:1020F0006263646566000000F8B5C046F8BC08BCC1
:102100009E4670472901000089050000F8B5C046C9
:10211000F8BC08BC9E467047010100003021000059
:10212000B800002090000000D00000000000000077
:102130000000000018020020F41F0000F81F00003B
:10214000010000000000E02EC05D0000180000004B
:1021500000366E01040404000000000000000000CE
:10216000000000000000000000000000000000006F
:102170000000000000000000C1200000000000007E
:10218000000000000000000000000000000000004F
:10219000000000000000000000000000000000003F
:1021A000000000000000000000000000000000002F
:1021B0000000000000000000E0000020000000001F
:1021C000000000000000000000000000000000000F
:1021D00000000000000000000000000000000000FF
:1021E00000000000000000000000000000000000EF
:1021F00000000000000000000000000000000000DF
:102200000040002011220000EBBD0000EBBD0000EB
:1022100010B5034B83F3088809F0E8FF09F00AFEC4
:102220000040002070B572B60024414B414A1C604A
:10223000414BC7211A60414B414A1C60414B490048
:102240001C60414B20251C60052313603F4A116030
:102250003F4A136012223F4B1A6009F0B5FF30204D
:102260000AF0DEFAE8223C4B52011A603B493C4B33
:102270003C481960C021890001603B4818603B4818
:1022800001603B493B4819603B490A603B49196082
:10229000F821490101603A4818603A4804603A4818
:1022A00018603A4802603A4A0D201A60394A1160B3
:1022B000394A3A491A604522394B1D60394B1A6038
:1022C000394B033A1A60394B013A1A60384B0632DF
:1022D0001A60384B013A1A60374B033A1A60374B91
:1022E00001321A60364B043A1A600AF0DFF90D2009
:1022F0000AF008FA8020334BC0051C6009F07EFF0D
:102300000322314B01201A608022304B12061A60E2
:1023100008222F4B1A602F4B1D600DF0E7FC62B6B0
:102320000AF024FB2C4904200AF050FB70BDC04683
:1023300000030240FF0F00000004024008030440B5
:10234000000404401803044000030440080404404F
:1023500018040440300010401403014045FF008081
:10236000000001400803014042FF008004030140D7
:1023700041FF0080100301400C03014043FF008037
:1023800044FF00800003014040FF0080180301402B
:1023900046FF00801C03014047FF0080F9C4000095
:1023A0002800034048010140300101402C01014058
:1023B000100101400C0101400801014004010140ED
:1023C000000101400C0222403000304000003A4041
:1023D00000033A40000E3F40DDFC000010B5064C03
:1023E0002378002B07D1054B002B02D0044800E0D6
:1023F00000BF0123237010BD400200200000000038
:10240000C0530100084B10B5002B03D00749084802
:1024100000E000BF07480368002B00D110BD064B49
:10242000002BFBD09847F9E7000000004402002091
:10243000C0530100B8000020000000007FB5354AFD
:1024400001230292E1210022334C5B42019200936E
:10245000324A490220000AF083FC314B1B78002BE2
:1024600007D1304B1B78002B03D12F4B1B78002B4F
:1024700002D009F07DFAF0E72C4920000BF03CF87F
:102480002B492C480DF03CF800F076FC00F092FA55
:1024900000F0B0FC00F082FB274D0A2229782000D2
:1024A0000BF066F820000BF01FF80126234A137882
:1024B000591E1170002B0FD00123214A00963321A1
:1024C000204801F079F8204920000BF015F8FA2097
:1024D00080000DF0F7FEE9E71C4A11781C4A02293A
:1024E00007D101261B49200016700BF005F86E700D
:1024F00006E0137000F024FB174920000AF0FCFFEF
:10250000164B1748198800F073FA00F035FC00F0FC
:1025100051FA7FBD204E0000F0120020220800007A
:102520004F0100204B0100204C010020A05701006A
:10253000E529000004030020A20200204A01002037
:10254000D000002050030020B35701008411002068
:1025500094020020C0570100D6570100A0020020BD
:1025600099020020F0B50A2085B00DF0ABFE7E4C3C
:102570007E4920000AF0C0FF00F08AFA7C4B1D78EB
:102580000293002D3ED17B4B7B4E1B78002B1AD043
:102590007A4920000AF0B0FF00F0D2FA2A00307821
:1025A000012100F04DFC764B1878FA239B0058432C
:1025B00080B200F07BFC0123029A72492000137064
:1025C0000AF09AFF19E0FA253078AD00684380B22E
:1025D00000F06CFC00F034FB029B1B78002B00D158
:1025E000B7E0694B30785A78022100F029FC644B3F
:1025F00018784543A8B200F059FC029B1B78002BC9
:1026000000D1A6E0614B604E614D1B786978F318EC
:102610003E3372781B78200000915E490AF02DFF4E
:1026200020000AF061FF5C4B5C48198800F0E0F97B
:102630005B4A13780133137000F09EFB5949020086
:1026400020000AF01AFF00F097FB6B78564D2A889D
:102650002F005343C01A80B200F0ACF9454B0396EB
:102660001B78524E002B44D000F06AFA288800F004
:102670001DFC00F093FA00F055FA4D4920000AF0D5
:102680003BFF0025725D4B49200001350AF0F5FE45
:10269000332DF7D1002520000AF026FF464B3000ED
:1026A0001D7000F0E3F92900032000F09DFA725D2F
:1026B0004049200001350AF0E0FE332DF7D120001B
:1026C00001240AF011FF3D4F23003200290000943D
:1026D000380000F071FF2300320000942900380018
:1026E00000F06AFF364B1A78334B022A2ED11C7049
:1026F0002CE0264B28881B78002B02D100F05AF9D9
:1027000001E000F0D3FB00252B4B30001D7000F0E2
:10271000ADF92C4920000AF0EFFE244B2549EA5C74
:10272000200001350AF0A9FE332DF6D120000AF071
:10273000DBFEFA21039B388889005C780EF042F8B2
:102740002200C0B2032100F0D7FB1B4B187800F029
:1027500045FB134B1B78642B04D10023029A1370A2
:1027600000F0FEFB05B0F0BDF0120020E9570100BB
:1027700098020020940200204E010020F75701002B
:102780004901002020580100A6020020E402002098
:10279000A20200203C580100A00200209902002063
:1027A000960200208958010004010020D00000207A
:1027B00092580100285D010097020020500300207C
:1027C00084110020A2580100F0B587B0059303786A
:1027D00004000E0004925B09032B03D16349644893
:1027E0000AF04BFE634D644B3200210028001E802E
:1027F000002411F0F3FFA0202100C001AC5500F02F
:10280000FBFC5E4FFB6A019398472B780193EB79B1
:1028100002932B7B0393A64208D9564B58491A5D65
:10282000534801340AF029FEE4B2F4E7019B012B7E
:1028300028D154494E480AF05FFE534B1B78002BB9
:102840001ED1029B5149CA1849321378002B17D167
:10285000087806334343474CCB18E57901309D7027
:10286000257A5D71657ADD70A47A08701C716C46FA
:10287000247C9C716C46247DDC716B461B79137043
:102880003C4865E0019B022B17D1414B039A1B7812
:1028900093425FD13D4B029A9A1849321178002930
:1028A00058D118003E300178EC795B183F331C702A
:1028B00001230131017013704CE0019B032B3BD1CC
:1028C000334B039A1B78934244D13049029B0391C6
:1028D000CB1849331A78002A3CD1012119702D4BAD
:1028E0002D491B780978234E2C48C91A5C18E4B28C
:1028F000355D0400FF2D18D1002A01D0254A137040
:102900000299042000F070F93321BD6A2000A84725
:1029100064200DF0D7FC33212000A84764200DF07F
:10292000D1FC0023039A537014E0C5540133DBB289
:102930000122332BDAD1E1E7019B042B0AD1144B9E
:10294000039A1B78934205D10122154B13481A7044
:1029500000F012FB064C029B019A124920000AF07B
:102960008CFD20000AF0C0FD07B0F0BDAF5801009B
:10297000F01200205D02002092020020385E01006B
:10298000C9580100CD58010098020020A60200207D
:10299000A20200204D010020FA590100D0000020C1
:1029A00097020020FC5801000122014B1A70704769
:1029B00095020020012370B5084D094C0100280044
:1029C00023700CF097FE28000CF01EFE2378002BDD
:1029D00002D008F0CDFFF9E770BDC0460403002027
:1029E0009F0200200022014B1A7070479F020020B6
:1029F00070B5437804005918C9B23B2901D8417019
:102A000004E003783C390133417003702378172BBD
:102A100004D9183B2370E3780133E3702579022D44
:102A20000ED160791C2100280ED083070CD14831CB
:102A30000DF04EFFC9B24B4259411D23591A03E014
:102A4000094B5B19013B1978E378994203D2591A73
:102A50000135E170257123790C2B04D90C3B2371CE
:102A600063790133637170BDFB590100064B1A781D
:102A7000511C19700549097881541A78511C197034
:102A8000002383547047C0464D010020A20200205D
:102A900070B506F005F8214C0A22010020000AF06A
:102AA00091FD1F4D200029000AF014FD06F002F8E8
:102AB0000A22010020000AF085FD290020000AF00A
:102AC00009FD06F001F80A22010020000AF07AFD53
:102AD000290020000AF0FEFC06F000F80A2201009E
:102AE00020000AF06FFD290020000AF0F3FC05F039
:102AF000FFFF0A22010020000AF064FD29002000E7
:102B00000AF0E8FC05F0FEFF0A22010020000AF0AE
:102B100059FD20000AF0E8FC70BDC046F01200200C
:102B2000427101000023034A1370034A1370034AE1
:102B300013707047841100208C1100209502002032
:102B400010B51048104B114C8360114B8AB00360D4
:102B500023689847E3680F4898470F4B0022089373
:102B6000082301200293013B0093079206920592ED
:102B7000049003920190E46913000A21A0470AB06F
:102B800010BDC04618030020C9270000385E0100B0
:102B9000A9290000C0CA8936B80B000010B5054C41
:102BA00002220021200000F007FC200000F0ACFC15
:102BB00010BDC0465003002010B506211B200DF0AB
:102BC00065FA00211B200DF06FFA10200DF03AFB82
:102BD000040001211B200DF059FA322120000DF0D4
:102BE0007BFEC0B210BD000070B5124C0D0020700D
:102BF00005F056FF607005F05DFFA07005F064FF02
:102C0000E07005F06BFF207105F072FF607105F058
:102C100079FF094B30301A78A071E2715A7822722C
:102C20009B786372FFF7C8FF044BA0725B78257333
:102C3000E37270BDD0000020A2020020A602002096
:102C4000F0B589B06B463E4C02AF3B6123787B61A7
:102C5000002B71D06A460733DB08DB00D31A9D4690
:102C600002AD2E007B690434EB18FB60FB689E42CA
:102C70003CD0A078AE3010F0CBFC324A324B0FF093
:102C8000A3FE0022314B0FF07BFA38607960207888
:102C900010F0BEFC00222E4B0FF096FE00222D4BB2
:102CA0000FF06EFA02000B00386879680EF03CFFF6
:102CB00038607960E07806340F3010F0A9FC264ABD
:102CC000264B0FF081FE0022254B0FF059FA02002F
:102CD0000B00386879680EF027FF0022214B0FF0B7
:102CE00073FE0DF0C1FF30700136BFE701220024F2
:102CF00029786B1C7869824208D01878814201D209
:102D0000140001000132D2B20133F3E72B5D164902
:102D10000093164823000AF0B0FB06235C43084AE0
:102D20001419A37853706379114A01335370012247
:102D3000104B1A703B699D46BD4607B0F0BDC046BA
:102D4000A6020020333333333333D33F00A0644033
:102D50000000E03F008051409A9999999999C93FA4
:102D600000003B4000005940A3590100F012002030
:102D7000A202002098020020F8B5104DEF7805F06F
:102D8000ADFE04002E7805F08BFE0D4B3C1B63431B
:102D90001A00E123341A1B0163436E78D41805F03E
:102DA00089FE3C23301A5843AB780419E41805F027
:102DB0008BFE241AFA2080006043F8BD990200209F
:102DC000805101000023FF2103481A180133517379
:102DD000262BFAD17047C046D000002010B500283D
:102DE00004D00D22024B1A70FFF7ECFF10BDC04655
:102DF0004D01002010B5084B1C78FFF7DDFE0022C6
:102E0000064B1C705A709A70D870054B1A703E337E
:102E10001A70FFF7D7FF10BD0E010020A20200209C
:102E2000A60200200023190004481A004932821823
:102E300001331170142BF8D17047C046A602002050
:102E4000F0B5070085B0019102923C00FFF7EAFF60
:102E50000025002C1CD002990198FFF7C5FE0A221C
:102E600029000F480AF0B2FB0E4B33219B6A0E4833
:102E700003939847FA21002089000AF081F80600A0
:102E8000013C80B2AD190DF01DFAADB2E4B2E0E73D
:102E9000FA2080004743781BFFF78CFD05B0F0BD9A
:102EA000F0120020385E0100D000002037B5040089
:102EB0000E490F480AF020FBFFF7B4FF2000322133
:102EC0000DF080FC002485B20A4BAC4209D05B6B4C
:102ED000002001930134984732200DF0F3F9A4B299
:102EE000F2E7DB6A0193984737BDC046C559010038
:102EF000F0120020385E0100F7B504000D00134801
:102F0000134916000AF0F8FAFFF78CFF114B1F78EF
:102F1000002F19D1002C17D031002800FFF764FED4
:102F20000D4B33219B6A0D480193984764200DF0A7
:102F3000C9F9FA21380089000AF022F8013C80B270
:102F4000FFF7B4FFE4B2E1E7F7BDC046F01200209E
:102F5000DE59010097020020385E0100D0000020F9
:102F600070B50025034C6570FFF75CFF25703E349B
:102F7000257070BDA602002073B5FA268479F6008C
:102F8000A41945780379C27881780194407900903A
:102F9000280005F0BDFD73BD70470020704700009C
:102FA000030070B540331B7804000E000C4D002B5D
:102FB00005D0C36B826B416B28000AF0ADF830344A
:102FC000280021780AF0A2F9280000210AF05EF812
:102FD000310028000AF05AF828000AF0A6F970BD5E
:102FE0005414002010B504000368AE219B69984773
:102FF0002368A1219B69200098472368C0219B6911
:10300000200098472368D3219B69200098472368B4
:1030100060219B69200098472368A8219B692000B4
:10302000984723683F219B69200098472368D52152
:103030009B6920009847236851219B69200098478D
:103040002368DC219B6920009847236800219B6945
:1030500020009847236820219B6920009847236817
:1030600081219B6920009847236890219B6920005B
:1030700098472368A4219B69200098472368A621CC
:103080009B69200098472368AD219B6920009847E1
:1030900023688A219B69200098472368D9219B696E
:1030A00020009847236822219B69200098472368C5
:1030B000DB219B6920009847236835219B6920000C
:1030C00098472368AF219B692000984710BD70473F
:1030D0000122014B1A7070475301002010B53430A3
:1030E0000EC802480AF018F8012010BD5414002040
:1030F00010B50400024B036005F0B6FE200010BDC1
:10310000105A010010B50400FFF7F2FF20000BF089
:1031100046FC200010BD000030B5144889B00CF00A
:10312000B9FA01256B4668461D7002F04BFF002876
:1031300019D16B461B790E4C002B04D0022323704F
:103140000C4B1D700FE003A803700B4B057443601C
:103150000A4B83600A4BC36003F0C0F904230028C4
:1031600000D00323237009B030BDC046B003002057
:10317000D1030020530100200F0100200601002090
:1031800038010020037810B5042B01D1FFF7C4FFEC
:1031900010BD10B50400007E03282CD823689B695D
:1031A0000DF0FCFA02041517A12100E0A021200077
:1031B00098472368C0219B69200098472368D32142
:1031C0009B6920009847236860219B6911E0A0213A
:1031D00000E0A121200098472368C8219B692000B6
:1031E00098472368D3219B692000984720212368B2
:1031F0009B692000984710BD70B506000D001A208D
:1032000006210CF043FF00211A200CF04DFF012095
:103210000DF058F80A4C200005F0A3FC200005F042
:103220006AFD084A20003240002105F02BFD2000F5
:1032300005F0EBFC002D02D028000DF043F870BD26
:1032400038030020FFFFFF00002110B50800FFF742
:10325000D3FF044B1B78002B03D101211A200CF063
:1032600023FF10BD340300207047000070B5437C7D
:1032700005000E49002B00D10D49EB782A7B0D4843
:1032800008F0A6FD0C4808F0A3FD00242B7BA34208
:1032900007D9AB680948195D013408F099FDE4B21B
:1032A000F4E7074808F094FD70BDC0463C5A0100A1
:1032B000435A01004A5A01006B5A0100765A010034
:1032C000DC5B010010B543780400002B43D10122E0
:1032D000214BC8211A700E23C25EA0201F4BC001D3
:1032E0001A60FFF789FFFFF7AFFF1D4808F070FD78
:1032F0002078032810D80DF051FA02040C0A19485E
:1033000008E0194808F064FDFFF706FF04E01748DD
:1033100000E0174808F05CFD102263790E20215E62
:10332000A256144808F054FD134914480AF0E4F872
:10333000A37C002B01D0FFF797FF637B002B02D00B
:103340002000FFF793FFA379012B01D1FFF7E4FEE3
:103350000A200CF0B7FF10BDC40300204C0300206E
:103360007B5A0100855A0100875A0100925A0100D8
:103370009F5A0100AA5A0100D95A0100F0120020F8
:1033800010B5024808F024FD10BDC046EB5A0100FC
:103390000D2330B585B001AC064D20002370029599
:1033A00002F0F0FE0C2320002370656002F0EAFEBC
:1033B00005B030BD18010020F0B51600384C85B0BE
:1033C000384920000AF086F8701E0B281FD80DF02F
:1033D000E5F90A0C0E10121416181A1E06083249C6
:1033E00012E0324910E032490EE032490CE0324935
:1033F0000AE0324908E0324906E0324904E0324945
:1034000002E0324900E0324920000AF063F8314D11
:1034100031492A7820000A320AF02FF833000B3B9A
:10342000012B00D8002600272C482D4B2D49036086
:103430002D4B320043602D4B4F6083602C4BC3609B
:103440002C4B0B6002F06CFB2B4C20000CF022F993
:103450002A4920000CF054F8022301AC2370284BB9
:1034600020001B78237102F08DFE072320002370BB
:10347000063B237102F086FEFFF78AFF20002770CB
:1034800002F0A0FD2B7822799A4203D0200023710C
:1034900002F078FE01221B4B1A7005B0F0BDC04649
:1034A000F01200204D5B0100585B0100725B0100CF
:1034B0008C5B0100925B0100985B01009E5B010048
:1034C000A45B0100AA5B0100B05B0100B65B0100D8
:1034D000BC5B01005C020020CA5B010054030020B9
:1034E000D1300000C8030020C5320000253A00009A
:1034F00085310000C1D30000B00300201931000065
:1035000048010020D103002030B5214B87B01B7843
:1035100001AC204D002B15D01F49204809F0DAFFDF
:10352000002323701E4B200063601E4BA3601E4BC4
:10353000E3600123237402F0D1FF0423002824D088
:10354000032322E0032220002270636002F01AFEAF
:1035500004232370154B20001B68636002F012FEE9
:1035600005232370124B2000636002F00BFE06233C
:103570002370104B2000636002F004FE0123200042
:103580002370237102F0FEFD02232B7007B030BDC3
:1035900090020020D1030020DF5B0100F012002028
:1035A0000F01002006010020380100202401002026
:1035B00028010020C0000020F0B591B0019316ABA7
:1035C0001F78002304AC2000009223700E0002F04C
:1035D000F9FC2E4B22791B789A4203D020002371EC
:1035E00002F0D0FDFFF7D4FE294B03A91A78294B2E
:1035F00030001A7002F034FC07AC274D002807D0C9
:10360000264808F0E5FB00232370A360A38114E0A3
:10361000002F0BD0012323706B461B79A6812371E9
:10362000009BA3601E4B1B78E37306E06B461B797F
:1036300027702371009BA681A3602B782000A373C1
:1036400003F068F8011E04D0164808F0C1FB002002
:1036500019E015490BA80BF053FF64210BA80CF0DF
:1036600049F8124B1B68002B0CD00BA80BF0CCFFB9
:1036700008F07EF90BA80CF00DF80D4B5B6E009373
:103680009847EEE7012011B0F0BDC046640300206A
:103690005001002052010020D0030020115B0100E6
:1036A00051010020EA5B0100CF300000040500203A
:1036B000385E010070B51B4C522306220121200008
:1036C00005F0CAFA184D19492A0020000BF060F9DC
:1036D000174C200005F07AFB164B002123602300D5
:1036E000403319700A000B00200005F0FAFC3A2163
:1036F000200005F027FD23003C2230331A700E4BCA
:103700002A00E3630123636300230C492000A363C1
:10371000E3760BF03DF970BD200005F0A5FB0BF042
:1037200001FCC04638030020BC000020458B00008F
:1037300068030020105A010020A10700F1300000AA
:103740000300F0B540331B7889B000AF0400002BB4
:1037500005D0C36B826B416B9F4809F0DDFC0223EF
:10376000217E99430D1E06D00022FD337A61FB6154
:10377000BA611E00CFE06B466946E28AFB60D31D4A
:10378000DB08DB00CB1A9D46290068463B6111F03F
:1037900043F82900668A8AB2B24206D30022FF2388
:1037A0007A61FB61BA611D003BE0A38A9C466046DA
:1037B000CB105843F861072000231040B86198B23D
:1037C000604516D2FD693A695219DD1075437A6178
:1037D000A2685218555D0722104005412800063A9C
:1037E0001040BA6990407A69D55C2843D0540133BF
:1037F000E5E70131CFE77B685843301883B2E668CC
:103800003869C05CF3181E78BB60864213D1BB6870
:1038100001311870C9B2A08A8EB28642EBD3013250
:10382000D2B293B27B60638A91B2DB0899421DD217
:1038300000219446EFE72E1C954200D96646BB69ED
:10384000F5B23E7E934200D26646F3B2BB61FB699D
:103850003E7F8B4200D90E1CF3B2FB617B693E7D3B
:103860008B4200D20E1CF3B27B61D0E7FF2D39D022
:10387000FB691B091033BB60BB69AB4232D3290023
:1038800023685039C9B29B69200098472368B968FA
:103890009B69200098470F222368F9699B691140B2
:1038A0002000984723004C4E30331978300009F03F
:1038B0002DFD3000402109F0E9FBFE697B69B34230
:1038C0000AD3A38A3A696B439219D15C4248013604
:1038D00009F0DCFBF6B2F1E73F48013509F025FDC0
:1038E000EDB2C9E7FB689D4673E06346584328186C
:1038F00083B2E568A068C05CEB181D783B61854227
:1039000012D13B6901311870C9B2608A8DB285420B
:10391000EBD30132D2B293B29C46A38ADB089C451A
:103920001DD200213A73F0E7351C964200D93D7B49
:10393000BB69EEB23D7E934200D23D7BEBB2BB61F0
:10394000FB693D7F8B4200D90D1CEBB2FB617B69AB
:103950003D7D8B4200D20D1CEBB27B61D1E7FB6950
:103960001B0910333B61BB69B34232D3310023687A
:103970005039C9B29B6920009847236839699B690F
:10398000200098470F222368F9699B6911402000A5
:1039900098472300104D30331978280009F0B6FC01
:1039A0002800402109F072FBFD697B69AB420AD314
:1039B000638AA26873435219D15C0748013509F044
:1039C00065FBEDB2F1E7044809F0AFFC731CDEB211
:1039D000C9E7BD4609B0F0BD541400201FB50F4C17
:1039E000200005F077FB0E4901A809F096FE01AB17
:1039F00016224021200005F0D7FB01A809F032FE75
:103A00002000FFF79DFEFA2080000CF05BFC1FBD3C
:103A100001A809F027FE0BF085FAC04668030020D4
:103A2000D35C010010B50378002B02D0052B2BD0FE
:103A30002FE04378002B18D1FA2118484900FFF7EE
:103A4000DBFBFFF701FC164B1B78002B02D015485F
:103A5000FFF7C4FF144808F0BBF9144B1B78002B88
:103A600017D10222124B1A7013E0124808F0B0F975
:103A700005200CF027FC104C104920000BF03AFEFA
:103A800020000BF0C1FD04E04378002B01D1FFF7CB
:103A900077FC01220A4B1A7010BDC046500050003E
:103AA0003403002050030020DA5C0100AC03002046
:103AB000D1030020E35C0100B0030020307500005A
:103AC0005301002004221021034B1A70034A13787B
:103AD0000B4313707047C0461804002012080020E2
:103AE00070B5644B02381C7880235B421B1BDBB231
:103AF000112800D9B1E00CF051FE09131D28324500
:103B0000535D66B0B073B0B07D8A939F5A4901206F
:103B10000A78934200D8ACE013180B70022112E02F
:103B2000554C013B227801209A4200DBA1E0534B27
:103B300002302FE0504901200A78934200D898E0E3
:103B400013180B7004214D4B74E04B4C013B227851
:103B500001209A4200DB8CE0484B04303AE0464DAD
:103B6000023B2C7801209C4200DB82E0434B053075
:103B70001855601CC0B21954E11C0234E4B229701B
:103B80001A5567E03C4C013B227801209A4270DADA
:103B90003A4B06309854901C01322070D2B249E062
:103BA000354901200A78934263D913180B70082114
:103BB000324B4EE0304901200A78934259D913180C
:103BC0000B700921BFE72C4C01202278934250D979
:103BD0002A4B09309854901C01322070D2B238E040
:103BE000254A0120137859B2002942DB19181170B7
:103BF0000D211EE0204C012023787E2B39D81F4A4E
:103C00000F30D054981C01332070DBB212E01A4CF4
:103C1000012023785AB2002A2BDB184A103013E017
:103C2000154A0120137859B2002922DB19181170A6
:103C30001221124AD15412E00F4C012023785AB2BB
:103C4000002A16DB0D4A1230D054981C0133207024
:103C5000DBB2D154FFF736FF01E0022009E0012278
:103C6000074B1A70074B1878002802D0FFF72AFF7D
:103C7000002070BD12090020FC0400207C040020FC
:103C8000480400204104002000230121274A70B588
:103C90001370274A49421360264A1160264A274971
:103CA0001360274A137001220A7026490A702649B8
:103CB0000B7026490B7026490A8026490B7026494D
:103CC0000B7026490A702649264A08788C1C107009
:103CD00048785070E47F901CC47710000C002430AA
:103CE000243460CC60C00C0010002C3424782C30BC
:103CF00004700C0010002D3424782D300470086BF3
:103D0000496B10635163184A1370184A1370184AAC
:103D10001370184A1268002A02D05362926BFAE7B5
:103D2000154B1A70154B1A7070BDC0462005002047
:103D30005009002044040020E80700206101002011
:103D4000EC07002060010020100800205A04002029
:103D5000F0030020FC040020120900206301002071
:103D6000EC050020B0050020680700204104002079
:103D700048040020140900205C040020D203002025
:103D800010B50C480BF086FC0B4B1B78002B07D0B2
:103D900001220A4B1A700423094A116899431160E1
:103DA000084B1B78022B04D12021074A13780B43C0
:103DB000137010BD3C090020680700201008002087
:103DC000040500203C0600201208002037B5144BE3
:103DD00014001A00050068462C32127838338270BD
:103DE0000922417002701B78002B01D00A23037056
:103DF0000C4B6946187803F015F8AAB2A5B283B245
:103E000051198B4206D20020844208D0934206D337
:103E1000AB4204D30020FF238B424041C0B23EBDE1
:103E2000B00500207409002040230C4A10B5116829
:103E30000B4313600A4B1B78002B01D0FFF7A0FF48
:103E40002223084A084C117820000B4301211370EB
:103E50000BF050FC20000BF0D7FB10BD0405002038
:103E6000680700201208002028060020F0B5060090
:103E70000C008DB0049312AB1B7802920593029B49
:103E80009C4200D306E2305D651C0238EDB2112879
:103E900000D9FFE10CF08CFC1200260076008300B4
:103EA000B500C200E700FB002A01FE01FE01470148
:103EB000FE01FE0198019F01B901C701012002F036
:103EC000FDFD002800D1C7E10121002002F082FDA4
:103ED000725DE24BE51C02341A74E4B2325DEDB25D
:103EE0005A74B9E100230B2704AA53729372BF18C6
:103EF00007AA13703B706B1EF3180993029B09A964
:103F000001335D1BD64B0D711B78D64D8B712B0089
:103F10002C331B7804A84B716B78CB712B780B7208
:103F2000D14BDB7F4B72D14B1B7801929C460A230D
:103F300004AA9B18092200971218604602F0D6FFC7
:103F4000C34303905B0708D104AB5B7AC64A6B702E
:103F500004AB9B7A2B703B78D377002707AB1D7897
:103F6000052128000CF02EFCC0B2874207D20022A7
:103F7000039903200137FFF7B3FDFFB2EEE76419A1
:103F8000E5B269E1725DBA4B02341A7001239340C5
:103F9000B84AE4B21380002204201100A2E00723F3
:103FA000715D09AF0A091A4008330B403B70E31CEE
:103FB000DBB2F35C7A701A02231DDBB2F35C651D81
:103FC00002341B04E4B21343325D3900134364220C
:103FD00053430A93A54BEDB2187802F096FF0723DE
:103FE00001000340072B09D19E4B38781A00283274
:103FF00010707A685A627A780233DA7700220520E4
:1040000028E19D4BFF211B68002B04D01B68002B6F
:1040100001D098470100049A06201BE1735D07A9AF
:104020000B71E31CDBB2F35C00271A02231DDBB229
:10403000F35CA51D1B041343A21CD2B2B25C053471
:10404000134364225343E4B20993335D09A8037216
:10405000864B079018780A9702F060FFEDB20100D6
:104060003A000720F6E00F23725D0234E4B21340F9
:1040700000D10133FA22FA2192005343794A890090
:1040800013615B1853610022082011002AE000230D
:10409000725D09AD02342B702033E4B2134000D0BE
:1040A00001236B70D30601D501232B700F2313401E
:1040B000AB706E4B2900187802F039FF431C13D007
:1040C000684F2A783B002C331A703B006A782D33F6
:1040D0001A70AB78694AD05C0DF0E8FC00223863B6
:1040E00011000920FFF7FCFC2500B5E0735D09A96C
:1040F0000B70E31CDBB2F35C651D1A02231DDBB2FF
:10410000F35C02341B04E4B21343325DEDB213439B
:10411000642253434B60554B187802F011FF002284
:1041200001000A2096E007AF08220021380010F0B5
:1041300073FBA31CDBB2F35C705D1A02E31CDBB201
:10414000F35CA51D1B041343221DD2B2B25C0534DF
:1041500012060343E4B21343305D03930FF058FAA1
:104160000022474B0EF030FC0FF01CFA04B209A8F5
:104170000BF02AFB434B039A19689B88501AE41AE8
:10418000414AA4B223B2EDB28018002B04DAFA231C
:104190009B00E418013823B2099A3C49801804AA0C
:1041A000148BE3189BB21AB28A4203DD384A0130FD
:1041B0009B181AB20790BA8079680BF0E7FA0BF0F7
:1041C000D1FA02F083FB47E0059B033B012B43D967
:1041D00002F078FB40E0A31CDBB2F15CE31CDBB235
:1041E000F35C09021B0419436423725D651D0434EA
:1041F000E4B21143305D5943553B184002F063FB74
:10420000EDB201000022112024E0A31CDBB2F05C1F
:10421000735D251D0334E4B200021843315DEDB235
:1042200002F053FB18E0735DA21C251D0334D2B2CB
:10423000E4B2B05C325D0002120410431843642300
:10424000584302F04EFBEDB20100021E01D00022E5
:1042500001211320FFF744FC2C0010E6700700201A
:1042600040040020B0050020B105002074090020A2
:104270005A040020F003002078040020535D010060
:1042800000400F4068090020803DD512E703000080
:1042900018FCFFFF0DB0F0BDF0B5140097B01A0088
:1042A00004900E00D7482100079307F091FD0023EA
:1042B000D54A1178994200D01370D44AD44F137163
:1042C0006A46127F13933A74D24AFB70BB70BB717B
:1042D000BB603B737B73BB747B613B70CE4B1278CE
:1042E000DB6A7A74FC8105939847CC480BF0D2F9CD
:1042F0003100049802F0D3FA002805D06A46C84B72
:10430000127FDC811A74C0E2C64B1C78012C15D1D7
:1043100002F0C9FA002806D0200002F0B9FA02F033
:10432000BCFA032309E002F0C0FA002806D02000FE
:1043300002F0AFFA02F0B2FA04237B74049B1B78FC
:10434000580901380B93062800D96AE20CF030FABC
:104350000700690298006902980069025502B24B91
:104360001B780593002B01D0012387E2AF4F049BFC
:10437000711E581C89B2AE4B3A68AE4C02F0E0FC9C
:104380002C226B469B181B78311F23703A6813ABA5
:10439000200089B202F0ACFCA3191A1F127805980C
:1043A0000692DA1E127807929A1E1278013B089242
:1043B0001D7802F083FB002800D136E2089B2D0611
:1043C0001B041D43069B1D43079B1B021D43139BA0
:1043D0009D4250D1984B96491A88984B0093386863
:1043E000974B02F0CFFC6379E0791A02A379954DDF
:1043F0001B0413432279A91C1343934A1360227AA6
:10440000637A120202431B0413431A00A37A1B06A9
:1044100013438E4A1360E27A53065B0FCB770F2368
:1044200029001A4028310A70227B134000D1012351
:104430002B61FA232A699B005343FA2292002B61D5
:104440009B186B61330014A9113B0B71804B0D3429
:104450001878149402F00BFD0021080002F0BAFA5B
:104460000122714B310004981A700BF0F7FA794B66
:104470005B786B70D9E10599072002F0ABFAD4E1C3
:10448000704B11A91A002D32127838338A703A799C
:104490004A707A7109220A701B78002B01D00A2316
:1044A0000B706B4B187802F0BDFC32000D3A129085
:1044B000131C120400D50023129A1BB2934200D998
:1044C00052E7049B581C597843781B020B431A008F
:1044D00083781B041343C27812061A43049B069286
:1044E0005B790593594B1B689A421FD05A4B1C6845
:1044F000002C00D1C1E1069B2268934206D11F2304
:104500000B9A9A431300602A0ED101E0A46BEFE7E7
:10451000626A0892059A1A4206D1231D0A93103343
:104520000D93012309930BE00D23A7E14B4B0024CE
:104530001B68089300230993404B0D93404B0A934B
:10454000059B311F1D072B0F0E93049B9B19DA1E31
:1045500015789A1E12782D02120415431A1F013B7A
:1045600012781B7815431B062B430F93049BDF79AE
:104570009B793F021F43089BFF1ABBB20C936B460B
:1045800030229B5E002B16DB0C9A089B94466344FA
:104590001F0013AB029301230A9A009389B2069B72
:1045A0000197049802F0E2FA139B0F9A9D1A6A424F
:1045B0006A41D5B215E080200125089A4002121800
:1045C0009F1813AB02930A9A069B89B20197009534
:1045D000049802F0CBFA0F9B139A934201D0002566
:1045E000089F112311A90B70194B187802F01AFCBF
:1045F0000C9A1290064B824232D30A225F615A70A3
:104600003DE1C046635D0100420400200805002032
:104610000004002031040020385E0100B0070020B3
:10462000180400203C060020200500201809002066
:104630005506002054060020540900205609002089
:104640004A040020B0050020C40700200408002010
:1046500074090020EC050020140900204404002007
:10466000002D00D1C6E069462420002209180978EF
:104670005A70997005999A60C906C90F9971844951
:104680001A734A7083495F610A6083490A70099905
:1046900001290BD102321A70636A9F4204D1002FA4
:1046A00002D008227D4BA6E067622AE01F210B980A
:1046B000884301007A48A0290FD101221A70794B52
:1046C00002701B689F4212D1002F00D1DAE0764AB7
:1046D0009C3913780B43137009E01A70714B027008
:1046E0001B689F4203D1002F00D1CBE0D9E76D4B6F
:1046F0006E491F6038000CF0EBF8002901D10BF077
:10470000D9F9634A1378012B0CD1059B9B060CD574
:104710000021674B1970059B9B06DB0F13715F4AE5
:10472000937402E00022624B1A700E9A331F083213
:104730009B1A002B51DD0E9D049B09359B5C741B5D
:104740005649043CE4B2CB70002B26D10F26059AC3
:1047500032401600099A3243161E14D1049BA1B2AE
:1047600058190123534D00930A9A069B029501970D
:1047700002F0B0FA6B46494A1B7F527C310000922E
:104780002800220033E0042047490A7802430A70D7
:104790003F4A1371414A93743DE0059B1E070BD0BD
:1047A000099B002B08D16B463C491B7F497C049830
:1047B00000910821FFF75AFB01970127049B3D4E0A
:1047C0005819A1B2069B029600970D9A02F082FA40
:1047D000324B9E601C735F731DE0059B1E071AD051
:1047E0006B462E491B7F497C049800910821FFF7F6
:1047F0003DFB10E00C225A7041E02E4C0499200041
:104800000131320007F005F903233B700023BC603F
:10481000741E7B703C730221234A13780B43137080
:1048200003E001237B70FFF7FFFA234B234C1B7837
:10483000002B07D1224B1B78022B0DD120000AF050
:1048400029FF09E0124B1B79002BF7D11D4B1A7879
:104850001D4B1B789A42F1D8237A002B15D12021C9
:10486000114A1A4C137820000B431F3913700AF0B9
:1048700041FF20000AF0C8FE07E00B237B70FFF722
:10488000D3FA02E0074B1F6039E717B0F0BDC0460E
:1048900008050020E807002012090020000400207D
:1048A000410400204404002012080020983A00002F
:1048B000FC04002054060020680700203C0900206A
:1048C0003C06002060010020610100202806002035
:1048D00000220023F0B57E4999B009780A920B9323
:1048E0000920FF2900D1F1E0002902D179490A60AD
:1048F0004B60794B794A1B7812AC794F1278E37090
:10490000784B22703A7818685968A2700AF036FF1E
:10491000754D764E2A686B6822616361744BA060A6
:10492000E1601B7821003078637002F01BFB714955
:1049300000230A8801204042C117801859412A6883
:104940006B680CF04DF9634D12901391286069600B
:10495000694B30785B7823743B78A3745F4B1B788A
:104960006374664B1A685B68A260E360012308AC5D
:104970002100237002F056FA43B20393032321006F
:104980003078237002F04EFA5B4C099047B20495E0
:104990000596564B5A4E1878049B12AD0093320080
:1049A0000AAB290002F0E5FA00280CD10122524B93
:1049B00003999A56914201D15F7001E0013A5A7011
:1049C0005B782B74E5E721000122484B2D311D78DF
:1049D000A31CDB7FA2565BB20978280002F0DDFA47
:1049E000484F227A009741B26368280002F05CFACF
:1049F00028213E4B444D1878227A61560095636811
:104A000002F052FA354B1B78002B07D1A269FB68E4
:104A1000D3183E4A1360EB68E26912E001213C4B77
:104A200061561A783B4B1878FFF7D0F9030008203D
:104A3000002B4BD02269FB68D318344A1360EB6813
:104A40006269D3180A99344A0B9D13600D4330D123
:104A50000F2733780022039304ABFF1800230EAE18
:104A60000C920D932900103230003D700FF0D4FEEF
:104A70006B461B7B3A003370637831007370237888
:104A8000B370236B7360636BB360244B1B88B3817B
:104A9000059B18780CAB02F01DFA214B08209B6B8C
:104AA0000393984780231F4A280011680B43136023
:104AB0000CE010231B4A1C4C1068034320001360B9
:104AC0000AF018FE20000AF09FFD002019B0F0BD8A
:104AD0005A04002020090020D203002020050020D5
:104AE0006609002038040020A80500207409002071
:104AF00098070020F0030020B0050020F8030020F4
:104B00005C040020280900204006002070090020D5
:104B1000FC04002011080020D40300206A070020B4
:104B2000385E010004050020540700208023F7B5FB
:104B3000274C284F226806009A433B7822602500C4
:104B4000002B24D000281CD0234B244A1878043290
:104B5000234902F0B4F9002808D0224B1868224BF0
:104B60005B6B019398470222204B1A700024204B64
:104B700020481C700AF08EFD21001F48FEF73CFB08
:104B800025E0194BDB6A019398473E701FE0164BF6
:104B9000DB6A01939847194A002E0CD01378072B33
:104BA00009D8013313701023FA21226889001343B6
:104BB0002360134C05E001212B68124C0B4311704C
:104BC0002B6020000AF096FD20000AF01DFDF7BDC5
:104BD0000405002042040020740900200004002085
:104BE000DC0300205C010020385E0100310400205D
:104BF000D8030020F0070020505000006201002080
:104C00005407002060040020002373B5144D2B705E
:104C1000144B1B68002B22D10124134B13491C7029
:104C2000134B144A1B7804324B70134B8C741B6863
:104C30004B600523CB74114B187802F040F9104BF0
:104C400002209B6B019398470E4B0F4E1968300062
:104C500014390AF04FFD30000AF0D6FC2C7076BDF6
:104C6000D80300200405002042040020DC030020BB
:104C7000490400200004002058010020740900208D
:104C8000385E010054010020F007002007B5054BF5
:104C90005B6B0193002801D1080000E000209847D9
:104CA00007BDC046385E010070B519480AF0F2FC35
:104CB000184B19491B7819480B70194B00785A6A20
:104CC0000C004A601A002D3212781D000A741A0076
:104CD000383212784A740122CA74022802D00023A2
:104CE0008B7400E08A740F4B0F4A1878043221004D
:104CF00002F0E5F8002806D0A07CE968FFF7C6FFBF
:104D000001220A4B1A7000210948FEF775FA70BD9E
:104D1000B00700205C040020400600203C06002074
:104D2000B005002074090020000400203104002098
:104D30000050500010B5FFF7B7FF0222014B1A7068
:104D400010BDC04631040020354B73B51A78002AD7
:104D500001D000221A70334C2378022B03D0324B3F
:104D6000DB6A0193984701F09CFD0025A84205D01D
:104D7000022001F08CFD01F08FFD01352678012E17
:104D800013D101F090FD002805D0300001F080FD26
:104D9000350001F082FD01F088FD002805D00120DA
:104DA00001F077FD01F07AFD31E0002D2FD11F4B8E
:104DB0001A781F4B1B78002A19D1002B02D01D4BEB
:104DC00003325A70032001F04DFE2378022B21D0CC
:104DD000194B186859680AF0D1FC184B1B68002958
:104DE00001D1834213D816480AF054FC0AE0002B84
:104DF00002D004220F4B5A70042001F033FE2378B6
:104E0000022B07D020210F4A13780B43137023780D
:104E1000022B01D1FFF78EFFFEF716FA73BDC046D5
:104E2000420400203C060020385E010031040020CE
:104E30006807002008050020F8030020D4030020A4
:104E4000B00700201208002013B5134C1348236844
:104E50000193984763690193984706F0C9FD0120C3
:104E60000F4B1870E36D01939847E46AA0470D4B10
:104E70001B78022B01D0A04701E0FFF75BFF022067
:104E8000094B587001F0EEFD2021084A13780B43BE
:104E90001370FEF7D9F913BD385E0100CC0700206E
:104EA000C80700203C06002008050020120800204A
:104EB000354B73B51A78002A01D000221A70334C92
:104EC0002378022B03D0324BDB6A0193984701F021
:104ED000E8FC0025A84205D0022001F0D8FC01F032
:104EE000DBFC01352678012E13D101F0DCFC002813
:104EF00005D0300001F0CCFC350001F0CEFC01F013
:104F0000D4FC002805D0012001F0C3FC01F0C6FC50
:104F100031E0002D2FD11F4B1A781F4B1B78002A30
:104F200019D1002B02D01D4B05325A70052001F01B
:104F300099FD2378022B21D0194B186859680AF083
:104F40001DFC184B1B68002901D1834213D8164859
:104F50000AF0A0FB0AE0002B02D006220F4B5A7089
:104F6000062001F07FFD2378022B07D020210F4A75
:104F700013780B4313702378022B01D1FFF7DAFE6D
:104F8000FEF762F973BDC046420400203C060020D3
:104F9000385E010031040020680700200805002069
:104FA000F8030020D4030020B007002012080020DE
:104FB000F0B58DB00AF0D6FB04AC424D00900191E3
:104FC00020000AF001FC0CCC0CC53F4B3F4D1B7878
:104FD0003F4E404C002B2DD03F4B404F19683800BE
:104FE0000AF088FB38000AF00FFB2B78022B08D060
:104FF0003B4F3C4B380019680AF07CFB38000AF044
:1050000003FB2B78022B03D0374B1B78002B1FD0D0
:10501000122306A930780B7001F004FF314B334F97
:105020001B680790C11838000AF064FB38000AF0CA
:10503000EBFA0DE02E4A0420537001F013FD2378A3
:10504000002B01D1013323702022237813432370D6
:105050002B78022B04D0274BDB6A0393984701E09F
:10506000FFF768FE2278244B120705D5234A1278F1
:10507000002A01D1013200E000221A70204B214A9F
:105080001B7808A913700B701F4B30781B784B707E
:10509000009B019C8B60CC6001F0D0FE0099019ACE
:1050A0001A4B19605A60104B1B78002B05D1104A1F
:1050B0005370174A137801331370FEF7C5F80DB01B
:1050C000F0BDC04668090020630100203C060020B6
:1050D0007409002012080020700900209C0700209D
:1050E000B0070020D4030020680700203C090020FE
:1050F00008050020385E0100980700207007002096
:105100005C040020D203002020050020F8030020CA
:10511000EC07002037B519480AF0BCFA0022184BFA
:1051200018491A70184B0C001B780B70174B981C01
:10513000C07F1D00C87018002D300078087418005A
:10514000383000788A74CA74114A48741278022A76
:1051500003D1104B1B6B019398470F4B0F4A1878E4
:105160000432210001F0ABFEE968A07CFFF78EFD60
:1051700000215020FEF740F837BDC0469C070020B4
:1051800031040020280900205C040020B005002024
:105190003C060020385E0100740900200004002055
:1051A000F0B58FB0059314AB07921A8800230691CF
:1051B000C64DC7490A930B702B80059BC54C591EE1
:1051C0008B4101785B42217000781A40C24FD3B204
:1051D00040093B700BF0ECFA0800750148007501BE
:1051E00045007501750167010123E0182B80BB4B59
:1051F0000822196806F016FC2888B94B083080B2DE
:10520000196808222880201806F00CFC2B8800263C
:1052100008332B8006F0D6FBB24B82B21A802B8863
:10522000120AE054991C01339BB2E254AE4A89B28F
:1052300029800AABC9B21268200001F059FD2B8801
:105240000A9A591C100A89B2E2546054991C89B216
:10525000100C6054191D03339BB2120E2980E254C6
:1052600030E101229A4B1A70A04B07261B78002BC5
:1052700000D127E1069B01241B789D4DF3400BA92B
:105280004B702B680C704B609A4B9B485A78007897
:105290000A721A784A721A002C3212788A721A1913
:1052A000009501F0F4FD069B0440A0011C7840230A
:1052B0009C43069B04431C70904B1A78002A06D02E
:1052C00000221A702032E3B21343069A13708C4FF7
:1052D000804C3B688B4E1A0A6370A2701A0C1B0E2E
:1052E0002371069BE2701B78874D637133682878C1
:1052F000A3711B0AE371854B85491A78854B1818F1
:1053000006F087FB814B2A781B780599D218D2B218
:105310002A70089709967F4D7F4B00292AD06E4846
:105320000178002926D01B780821002B2DD00F2AC8
:105330001AD80F20069B1B781907090F5118014036
:1053400083430B43069928000B706371002391B2CD
:105350009DB2A94204D91E5CE5182E720133F7E70D
:1053600011000831C9B210E000230793694B0270A5
:1053700005930AE00821002A07D01B78002B04D0EF
:10538000554B05951A70002307930025624B1D703D
:105390002B009A4229D95F48C65CF01E072821D805
:1053A0000BF0FCF91E20041C1E122004681CC0B265
:1053B00084466746564801334655564EDBB2F65C86
:1053C0000235EDB2C6550DE0681C84460820504EEB
:1053D00070556D46604628762D7E03E0023300E06E
:1053E0000133DBB20133DBB2D3E7484B1D70002D34
:1053F00002D00122484B1A70059B002B34D0364A4C
:105400001378002B30D06E464D1CEDB23148367FFC
:105410005B194654FB2B03DD05235B425B1B1370BA
:10542000079B002B10D16A46374B127F1A702A4B0C
:105430003A4A197863190293324B1B680193079B10
:105440000093089B1B680BE0234B354A19786319BE
:1054500002932C4B1B68019300230093089B1B684D
:10546000059801F0C7FB290000261B4B174D1B7840
:105470002A4A59180AAB29800293099B20001B680D
:1054800000960193089B1B6801F070FB2A880A9B19
:10549000A354190AA41861700432190C1B0EA170D0
:1054A000E3702A800EE0059E311E0BD00026B34229
:1054B00008D0D2B2601C06F0ACFA3B7801332B80E6
:1054C00000E0022630000FB0F0BDC0466A070020A1
:1054D0006807002013080020110800207404002031
:1054E0000C08002054090020180900202005002085
:1054F000E8070020B00500207409002041040020C6
:105500000408002050090020FC040020120900209B
:10551000210500207C040020480400204A040020CB
:1055200056090020F0B5124D85B02D7803AC012D41
:1055300001D10F3500E0002525700E4D27782E781B
:105540001F25F6013D4035432570009313000A00E6
:105550002100FFF725FE002807D1074A074B1268F4
:10556000587118711A61FFF7B3F905B0F0BDC04664
:105570003C060020400400205009002008050020BF
:1055800010B5174886B00AF085F81023154A11683F
:105590009943154B11601B781B071CD5134B1C78C6
:1055A000002C18D1FEF770FB114B05A91B780133B5
:1055B0000B80104B187801F0CCFC0F4B04A95870ED
:1055C0000E4B03A81B780470DB010B7022000094C3
:1055D0002300FFF7E5FDFFF77BF906B010BDC046DD
:1055E0005407002004050020120800207007002046
:1055F0005B04002074090020B00500204004002056
:10560000F0B5B64F85B038000AF044F8B44C0197B5
:105610002278B44D930600D4FBE00121B24B1970FF
:105620002B68590602D541218B432B6009230026A4
:105630001A4227D001F03CFAAC4B5870AC4B5A7868
:10564000022A01D002280ED101262A68A949B243B4
:105650002A6000220A70A849002009781A7159713D
:1056600000219860D960072001F028FA002809D0AD
:10567000012322781A4205D1120703D51E002A6899
:105680009A432A609D4B1A781F00002A46D1002EAB
:1056900044D109232178194240D00B0717D5934BE9
:1056A0001A78002A13D1964A300012789A7401F0C1
:1056B000B5F9002804D1934B1E60934B1E7029E06E
:1056C0008F4B1A78914B1B789A4223D208E0904A6C
:1056D0008D4B0132D07F1A78904208D98A0706D4C0
:1056E0002022237893432370FFF74AFF16E002221B
:1056F0000A4005D17F490A7086490A6801320A606A
:1057000000221A70844B1B78934203D17D4A1368A0
:105710000133136001232A689A432A6023787F4A61
:105720009B071AD5724B74481979002904D17C491A
:10573000067809788E4210D90021117039707649A7
:105740000978002903D16F4E316801313160017849
:10575000597101232968994329601378002B58D087
:10576000102329680B4054D113706D49624A09789F
:1057700013781600994233D9082B31D80133DBB2A4
:105780001370DB0710D51E23614E02AA137033007D
:105790002C331B781100937073785370614B187819
:1057A00001F040FB03907070FFF792F8002804D1DD
:1057B00020222378934323702BE009224C4B4D4940
:1057C0005A7000220A7001213A701A714A4A2868F8
:1057D000127888435A714E4A286052789A7010E0C5
:1057E000504B0121187801F030FB01232A689A43BD
:1057F00000232A603F4A3B7013703D4A137133788F
:105800005371454B1B78002B03D13E4A136801337B
:1058100013602B68002B31D101222378134206D06C
:1058200093432370404B32481B681B6898470825F8
:1058300023782B420BD0AB432C48237001F05AF94C
:1058400001F084F9002802D023782B43237010251F
:1058500023782B4207D0344B34481B68DB689847C9
:105860002378AB432370324B1B78002B27D12022A7
:1058700023789343237001F01EF807E0FA21019882
:10588000890009F037FF019809F0BEFE0222237853
:10589000134220D093432370264B1B78934201D1AF
:1058A000FFF748FA23785B0704D41F4B22481B6894
:1058B0005B68984704222378934323700BE0FEF73C
:1058C00001F9194B19481B68DB68984710222378A7
:1058D00093432370CBE705B0F0BDC04628060020F7
:1058E000120800200405002030040020700700206A
:1058F00008050020FC04002060010020680700204B
:105900005B04002050090020EC070020080800205C
:10591000B0050020E8070020C9070020100800207B
:1059200061010020740900200005002018040020F7
:10593000120900203C06002000040020F0B589B0C8
:1059400002ABDE1D002304AC3370394B20705A7853
:10595000070062701A78A2701A6B5B6B6260A360BA
:10596000344B1B88A38100F09CFF0E2300285CD1E0
:10597000314B1B78012B0BD100F095FF002801D093
:105980000F2352E000F091FF0028F9D100F0AEFFA4
:105990002A4D2B4B3200210018782B0001F09AFA87
:1059A000012001F05FF8012326494B70204B5B7802
:1059B0004F618B703378CB702A686B688A60CB60DC
:1059C00021498A60CB6000F072FF002813D100F0FB
:1059D00071FFFA211D4C8900200009F08BFE200088
:1059E00009F012FE1A4B1B78002B0CD1194A1378C0
:1059F0000133137007E02868696800F074FF102312
:105A0000014312D1E3E7A0200021C003FDF7F4FB1E
:105A1000084B11481978114B9B6A01939847012351
:105A20000F4A11680B4313600023180009B0F0BD42
:105A3000B00500206A0700203C060020A8050020D1
:105A400074090020080500207007002028060020A7
:105A5000200500205B04002013080020385E0100B0
:105A60000405002010B5044809F014FE034B187813
:105A7000FFF764FF10BDC046600400205C040020F6
:105A800010B5134B86B01B7802AA1370114B02A9F4
:105A90005A7888814A701A788A701A6B5B6B039205
:105AA000019304930C4B187801F070FAFA210B4C17
:105AB0008900200009F01EFE200009F0A5FD012349
:105AC0000020074A11680B43136006B010BDC046A2
:105AD0005C040020B0050020740900202806002086
