:100000000040002011000000FD040000FD0400007D
:1000100010B501F039F900F035FC00F08FFA00005E
:1000200070B572B699221C4B1C4D1A601C4B953A48
:100030001A601C4B7C321A601B4B763A1A601B4AC2
:100040001B4B18201A6002221A4B00241A6012233C
:100050002B6001F071F8F022174B12011A60174A59
:10006000174B18491A604022174B0D201C60174B84
:100070001A6000F095FF0D2000F0BEFF144B200029
:100080001C6001F009F9112303222B60114B1A6047
:10009000114B1D321A6070BD000302403000104049
:1000A0000000044008000440000304403104000044
:1000B00008030440180304400003014040FF00808F
:1000C0000000014025130000280003400401014006
:1000D0000C02224030003040000E3F400000000083
:1000E0000000000000000000000000000000000010
:1000F0000000000000000000000000000000000000
:1001000010B5064C2378002B07D1054B002B02D0ED
:10011000044800E000BF0123237010BD4801002007
:1001200000000000FC1F0000084B10B5002B03D09E
:100130000749084800E000BF07480368002B00D1CA
:1001400010BD064B002BFBD09847F9E700000000DC
:100150004C010020FC1F0000B8000020000000003F
:1001600010B5054C200001F04FF820686368010BC2
:10017000000589B2184310BDAC010020F8B5FFF7A7
:10018000EFFF00250C0422002B00801859412B00A2
:10019000220C801A99410B04040C1C43584B594DF6
:1001A000E118594B0A091A40584B09011940584B9C
:1001B0000A43D21893082B40564D92002A4013430D
:1001C000554AAC46554E9B18554D5A085B00324077
:1001D0002B401343534A54499B18544A1F0A1B028D
:1001E0000F4013403B4307013A00F027504D3F03B7
:1001F0002B60504B174023401F434F4B4B4AFF1877
:100200003B0A3F0217400B404C4A3B439B183D4A78
:100210009F08DB43174062469B0013401F43484B37
:10022000394AFF18FB431B091340384A3F01174066
:10023000444A3B439B183A4A5F085B0037401340EF
:100240003B436B60F02307041B053B403E4F374A9E
:1002500027403B43F02707401F433C4B0002FF1859
:10026000FB433F021B0A17400B40394A3B439B1894
:100270001F09DB43244A1B011740244A13401F4334
:10028000344B204AFF18FF43BB0813406246BF00AF
:100290001740314A3B439B18214A5F085B003740B7
:1002A00013403B43AB602D4B1C40F0231B01184017
:1002B0000443E0436400400814400640284B2643B2
:1002C000F6183309F643104A360113400F4A164018
:1002D0001E43244B154AF618F34336021B0A1940F5
:1002E0003240214B0A43D218D243064993080B40AF
:1002F000614692000A401A431C4BD218EA60F8BDCE
:1003000059C9947F333333330F0F0F0FF0F0F0F0F0
:100310004E384E0ACCCCCCCCDC84235755555555A1
:10032000AAAAAAAA247BDCA8FF00FF0000FF00FF06
:10033000B4010020FFFFF0FF41BD4B3946F6AC3F52
:10034000DAE94D414299797E0FFFFFF02DB1F6B207
:10035000B2C3ED1B731F94F5DBAEE973FFF0FFFF33
:1003600038E47C2339DEC7D99A0FEC4100C1C62896
:100370000023F0B585B06946114A9A1812785A548C
:100380000133102BF7D1009B1FBA019B1EBA029BB1
:100390001DBA039B1CBAFFF7F1FE0A4B00201A6836
:1003A00097420AD15A68964207D19A68954204D179
:1003B000D868001B4342434158B2C0B205B0F0BDFB
:1003C000F0F7FF0FB401002010B590B040220B49A8
:1003D000684601F0D7F9002318006C4608495A42D4
:1003E00059180978A25C914201D00130C0B2013B9A
:1003F0001A004032F1D110B010BDC04600200000FC
:10040000FF27000010B50A2000F022FE094800F086
:1004100065F80A2000F01CFE8022074B52001A608B
:10042000064A074B1A604022064B1A6000F076FC21
:1004300010BDC046402000000003014041FF008085
:1004400000000140B000002010B500F0D1F800F02D
:10045000D1FF002811D1063000F0B4FF012000F0D8
:10046000BDFF00F0C7FF002803D100F0ABFFFFF78E
:10047000C9FF002000F0A6FF14E000F0DBFF002819
:1004800010D1063000F0BEFF012000F0C7FF00F0E1
:10049000D1FF002803D100F0B5FFFFF7B3FF002024
:1004A00000F0B0FFFFF764FF002805D0642000F0E3
:1004B000CFFD00F033FC08E0FFF786FF002801D1F4
:1004C00000F02CFC044800F009F8642000F0C0FDA6
:1004D00000F09CF8FEE7C046532000000FB400B5C2
:1004E000B5B036AA02CA02A8019201F075F902A8B5
:1004F00000F036F935B008BC04B0184710B501F06B
:1005000015F903680C2B00D1FEE7FEE7030010B5D8
:1005100080240849084A08686401C3189A1AA2424C
:1005200001DC0B6005E001F001F90C230360012000
:10053000404210BDBC00002018020020F8B5002584
:100540000F49104B01394A1C14D000221F685C6807
:100550009E68A018B24203D0B858A0500432F8E701
:100560000200DE68141AA64201D020C2FAE7103356
:100570000139E8E701F0E0F8FFF766FFFEE7C04663
:10058000010000001C210000002370B50B480C4C3A
:100590000C4D9A002100032B00D8A958013381503B
:1005A0002C2BF6D1FFF73CFD074B1A68002A00D12F
:1005B0001A608022054B92051A6070BD0000002071
:1005C000FD04000000000000B000002008ED00E085
:1005D0008021064A10B5136809060B4313600820F2
:1005E00000F00AFD00F096F810BDC046000025405E
:1005F00010B5054C2378002B03D100F01DF8012322
:100600002370FFF7E5FF10BD6401002010B508203E
:1006100000F0FCFC00F090F8054A082013685B002D
:100620005B0813600022034B1A6000F0F9FC10BD58
:1006300000002540880F254070B5002407210425BF
:100640001C4A1D4B08201A601C4B1D4A1C601D4B88
:100650001A601D4B1D4A13601D4A11601D4A063960
:1006600014601D4A11601D4A13601D4B1C601D4B18
:100670001D6000F0CBFC0321082000F09DFC1A490E
:10068000082000F08DFC194B1C60194B1C60194BA5
:100690001C60194B1C60194B1D60194B1C601A68BB
:1006A000184B1A80184B1C60184B1C60184B1C70A0
:1006B00070BDC0460C0000020000254040002540EF
:1006C00001000A0048002540070000800003254083
:1006D0000403254010032540440025400002254026
:1006E0000402254050002540E9140000880E2540F2
:1006F000C80E2540480F2540080F2540C80F25404B
:10070000880F25406C010020C8010020C401002092
:10071000CC010020F021054A13688B4360390B435C
:100720001360034B1A88034B1A60704700030240A2
:100730006C010020880F2540F021064A13688B4386
:100740001360054B1A68E423DB001340034A13804F
:100750007047C04600030240880F25406C0100200E
:1007600010B504000134631E1878002802D000F090
:10077000A1FEF7E710BD004770B506000D0014009C
:10078000002802D0002000F055FC00207519002C34
:1007900005D0013C2B191B78C018C0B2F7E770BD1B
:1007A000FF23020070B59A43C0B01300541C6A4680
:1007B000FF34D51A1E78EE540133A342FAD1C3B2E6
:1007C000D45C8C4205D0000AD15480B2110000F0F4
:1007D0003BFB40B070BD0000013810B50B2830D88D
:1007E0000902494200F002FF06080A0C0E1014121A
:1007F00016191B20174B13E0174B16E0174B0AE096
:10080000174B12E0174B0BE0174B09E0174B02E0B8
:10081000174B00E0174BC91817E0174B05E0174BB3
:10082000C9180878C0B214E0154BC9180A7848787E
:100830008C780002230418430300C8781343000691
:1008400006E0002000F0F6FB00210B78487800025B
:10085000184310BDC0FF0100C1FF0100C5FF01002A
:10086000C9FF0100D0FF0100D1FF0100D6FF010048
:10087000D2FF0100D4FF0100D8FF0100DCFF01001E
:10088000E0FF01000C4B10B51A68102313400B4A0F
:1008900000D113601368802B0DD1002402202100A9
:1008A0001460FFF799FFA04205D021000220FFF756
:1008B00093FFFFF760FF10BD54000340B00000201D
:1008C000F8B5010004000320FFF786FF21000600B1
:1008D0000420FFF781FF210007000620FFF77CFFBF
:1008E0000025012828D021000320FFF775FF0136DD
:1008F0003602F7192E0001300002B84209D20378FF
:100900005A1ED2B2FD2A00D80126ED18EDB20130F0
:10091000F3E721000120FFF75FFF6D42EBB20625F0
:10092000834209D1002E07D0044B24026042C01834
:100930000121FFF735FF00252800F8BDD1FF010098
:10094000F0B5C24CA54400F009FE62B6002700973E
:100950000197962103AC46ADFF23220049002800F1
:1009600000F004FE0028F4D12188062900D8AFE168
:100970002A780423012A5CD16E88F21D8A4200D9AC
:1009800086E0962149008A4200D981E0AA1992792D
:10099000172A4ED1F3189BB2002B08D0DCAAAC4921
:1009A000D21852181278013B801880B2F3E7AB19C5
:1009B0005A7940421B79120280B21A4308238242BC
:1009C00037D167E0342B00D0D6E0009B012B00D05C
:1009D0007EE1032E00D07BE180220021520091A80D
:1009E000802700F0D8FE7F00182191ABD819FF3185
:1009F00002ABF21EC91800F0C5FE0423F619FF333E
:100A0000B6B29E4200D01BE116228B21FF3202AB10
:100A10009B18490002AA521810781B78000218434C
:100A20008C4B0700984200D824E1FF3BFF3B00932A
:100A30000933002546A8012143702B0AC370002307
:100A400002AA06320170291D1580857089B200291D
:100A500009D0DCAC7E4E6418A419247801391B1926
:100A60009BB289B2F3E7DCA97B4C49195B420C19B4
:100A70009BB22370794C1B0A0C192370784B0735F5
:100A8000C91817230B70A9B27F3300F0A0FD60E7EF
:100A90000323CEE76B782C79180031380A282ED939
:100AA000704A1568002D26D0009A012A25D106AC7F
:100AB00002AA13725681002147AE0C22200005962F
:100AC00000F069FEA660210004A8A8472623A58897
:100AD000FF339D4202D9A368B34207D0A268002A1F
:100AE00001D1002D04D12368DBB2A3E70E23A0E7D8
:100AF0000E2315009EE705239CE7052399E700F0E8
:100B00007FFD0B001B00CFFF61FF4300CFFF4900BB
:100B10005D0061FF7B009200009B012B00D0D7E0BD
:100B2000002E00D0D4E03000FFF7CAFE434243411C
:100B30002B713300009D7DE7009B012B00D0C7E0A7
:100B4000012E00D0C4E0002C00D0C1E0464B1B6851
:100B50001B685A0CD2B2002A02D1DB03DB0D01E084
:100B600080239B002B711B0A6B71FF23AB71FE3B33
:100B7000EB71002304255DE7009B012B00D0A7E06B
:100B8000022E00D8A4E02FE7009B012B00D09FE0AD
:100B90000027DEE6009B012B00D099E02C33F519ED
:100BA000FF339D4200DD73E791ABD819320047A9AE
:100BB00000F0E8FD0023AFB21D003BE7062E00D099
:100BC00086E02A4A06AB94461000190014C814C1E6
:100BD0006246013EF6B29019A919007A0979884255
:100BE00076D1002EF5D147AA03CB03C201233700EB
:100BF0000093082533001DE7009B012B68D1032ECD
:100C000066D116228B21FF3202AB9B18490002AA43
:100C1000521816781B7836021E430E4B9E4259D945
:100C2000F63BFF3B05E70020FFF74AFE002802D114
:100C300080220F4B1A6000F095FC00F0FDF947E0B0
:100C400001230027009302333D00F3E68CFCFFFFF5
:100C5000A7FDFFFFFF010000ACFDFFFFADFDFFFFA3
:100C6000AEFDFFFF70010020C00000209C200000AE
:100C7000B0000020274B1B681A68130AD2B29BB23F
:100C8000002A01D001339BB26402381984B29C421D
:100C900014D3019B002B0BD180221900520006A80F
:100CA00000F079FD06A91C4800F0CEF8012301935D
:100CB00091A9200000F0C8F8002804D001230027E3
:100CC00000930933C0E70123070000930300BBE74B
:100CD0000423AEE680226102891909025200002035
:100CE000FFF74AFD0500002C0ED10B4B9E420BD1A5
:100CF00021000520FFF770FD21002D1A0620FFF7C7
:100D00006BFDEDB22D1AEDB26D4246AB1D710023A5
:100D100001258FE6C0000020FF01000070B5002013
:100D2000FFF7CEFD431E98410624134D40422B6829
:100D300004401A68C021C03A0020FFF71DFD6B680F
:100D40001B78181AC0B2834203D12B681B68002B92
:100D500002D1002000F06EF9084B19681A004029F2
:100D600001D0002C03D000231360FFF7E9FD80229F
:100D70001A6000F061F970BDC0000020B0000020D2
:100D800082B06A460B4B0C4900930C4B01930C4B01
:100D90001A600C4A1160C0461A68120F0F2A04D05C
:100DA0001A680020120F0A2A01D01868C0B202B0D7
:100DB0007047C046B6E900001600008074010020AC
:100DC0000800104004001040094B0A4A0A491A6002
:100DD0000A4A1160C0461A68120F0F2A04D01A6816
:100DE0000020120F0A2A01D01868C0B27047C0460E
:100DF00008001040B6E80000150000800400104014
:100E000082B06A460B4B0C4900930C4B01930C4B80
:100E10001A600C4A1160C0461A68120F0F2A04D0DB
:100E20001A680020120F0A2A01D01868C0B202B056
:100E30007047C046B6EA0000170000807401002029
:100E40000800104004001040F0B50024304BC7B03B
:100E5000029406000394984255D8A14253D08022B0
:100E600006A8520000F08EFC2A4B2B4D0493FF2362
:100E70002A492B4A04AF7B602F600A60C0462A686B
:100E80000191120F0F2A03D02A68120F0A2A01D0EB
:100E90002C681C400294029B002B36D100F0DDFA36
:100EA0000400FFF76DFF0390039B002B02D1FFF7B7
:100EB0008BFF0290029B002B16D11A4A1A4904920A
:100EC000049A0198360416430496134A2F60016071
:100ED000C0462968090F0F2903D01168090F0A2994
:100EE00001D01368DBB20293039B002B07D1FFF7FD
:100EF00087FF0390039B002B01D0039B02932000EC
:100F000000F0AFFA01E004230293029847B0F0BD6D
:100F1000FF010000B6D70000080010400400104098
:100F200004000080B6D800000500008070B5050000
:100F300000F093FA0400102D04D803210E4A136820
:100F40008B4307E0202D07D803210B4A13688B43FE
:100F500002390B4313600AE0302D05D80321064AFD
:100F600013688B430139F4E7002000F063F8200098
:100F700000F077FA70BDC04630001040024A034BC3
:100F800011680B401360704700002240FFFFFFBF55
:100F9000024B18684000C00F7047C0460000224056
:100FA0001B2800D901BE034B8000C31818681960C4
:100FB0007047C04640000020F8B504000E00032929
:100FC00000D901BE1B2C00D901BE032725003D40DE
:100FD000BD400635AF40AE4000F03FFAA408054BD7
:100FE000A400E4182368BB431E43266000F039FACE
:100FF000F8BDC04600E400E01F2318401E3B8340BC
:10100000014A13607047C04600E100E01F2318400A
:101010001E3B8340014A13607047C04680E100E0F8
:101020001F2318401E3B8340014A13607047C0468F
:1010300080E200E001BE7047034A044913689BB296
:101040000B4313607047C0460CED00E00400FA0546
:1010500070B5802504002D02064BAC4205D95868B6
:1010600000F0F2F9044BE418F6E79868604300F0EA
:10107000EBF970BDC80000200080FFFF37B500F01D
:10108000FDF8002842D000F0E8F91C21204B214A4D
:101090001B6812689B008A400B40920F1833D340A4
:1010A00080251D491D4A04000868ED0110401C4AB6
:1010B0005A435219D20B013A0243192B01D8194B4A
:1010C0000EE0194D19481818EB18A0251A3B0078A6
:1010D0001B786D031B182A43FF2B00D9FF239B05A8
:1010E0001A43134D0A602B6830200193FFF71EFF4F
:1010F0008021104AC905136814200B431360FFF7C1
:10110000A7FF019B20002B6000F0ABF937BDC04664
:10111000080F0340280003400800224000F800C0E8
:1011200040420F000000D43FAA2000004DF3FF0F03
:101130003000104000002240F7B50500183D0400C3
:10114000182D46D80126244B3700EB409F4340D151
:1011500000F083F90190FFF71BFF0097002802D0F1
:10116000FFF70CFF009607271C4E1D4A33681D49E8
:10117000BB4333601C4BE3181B78DBB213601B4A84
:101180001368BB4313601A4B0A68E31818787F236F
:101190009A43034013430B60322000F055F9182C9A
:1011A0000ED033681C3CA408BB433C401C43346055
:1011B000322000F049F93368AD08BB431D43356068
:1011C000009B012B01D1FFF759FF019800F049F96D
:1011D00000E001BEF7BDC04611111101080F034028
:1011E0000C0F0340180F03404DF3FF0F100F034087
:1011F00034F3FF0F10B5034B1B7B584300F024F969
:1012000010BDC046C8000020144B1A78144BD1B250
:1012100001601B781B020B431A000360114B1B7803
:101220001B041343104A0360127812061343036031
:101230000E4B1A780E4BD1B241601B781B020B4348
:101240001A0043600B4B1B781B0413430A4A43608C
:1012500012781206134343607047C04678F2FF0FBE
:1012600079F2FF0F7AF2FF0F7BF2FF0F7CF2FF0F94
:101270007DF2FF0F7EF2FF0F7FF2FF0F014B186828
:10128000C00F704700002240014A024B1A607047AD
:101290006588EDAC3800034070B5154D04002B682F
:1012A000144E9B0F9B07984215D0032233687C2075
:1012B000934333602B689B0F00D09030FFF79AFF69
:1012C00000F0CBF82B68A40F9B009B08A4071C43DD
:1012D0002C6000F0C6F803223368934319002B6892
:1012E0009A0F5342534101330B43336070BDC046E4
:1012F0000C0222401402224010B5040000F0ADF8A8
:101300000549064A0B681440054A134023430B6005
:101310000B6800F0A6F810BD10022240040404007F
:10132000FBFBFBFF042270B5224C2368134213D051
:1013300021490B6813420CD0204B5D6908681540A9
:10134000A84308605969914359619B68002B00D0FC
:1013500098470420FFF7D0FF80232268DB001A4261
:1013600015D015490A681A420DD0144A5569086803
:101370002B40984308605169114B0B405361D3686F
:10138000002B00D098478020C000FFF7B5FF8023D6
:101390002268DB021A420CD0074A12681A4204D0B3
:1013A000064B1B69002B00D098478020C002FFF736
:1013B000A3FF70BD10022240DC0000208C01002041
:1013C000FFFBFFFF034A044B116840020B40184328
:1013D0001060704708030440FFF1FFFF0823044931
:1013E000C0000A689A43D2B2034013430B607047AF
:1013F00000030440024B18680007C00F7047C04646
:1014000004030440034A044B116880010B40184355
:1014100010607047080004403FFEFFFF04230449AA
:1014200080000A689A43D2B2034013430B607047AE
:1014300000000440024B18684007C00F7047C046C8
:1014400004000440000000000230800803D0013096
:101450000238FCD1C046C0467047EFF3108072B628
:10146000704780F310887047084B094A1968136861
:101470000020994208D013680133412B00D10300AA
:101480000449C85C1360C0B27047C046C801002060
:10149000C4010020CD010020044B1868044B1A68D9
:1014A0001B68904200D24130C01A7047C80100202A
:1014B000C40100201F2204490B681340082BFBD0F5
:1014C000024B18607047C046080225404002254084
:1014D00070B504004518AC4204D02078FFF7EAFF4D
:1014E0000134F8E770BD0000134B70B51B68002B8A
:1014F00000D09847114B1B685B071CD520241F2088
:101500000F490B680133412B00D100230D4A1568A8
:101510000D4AAB4203D113680C4B1C7004E01268F7
:101520000B4DD2B2EA540B600A4B1B680342E8D160
:101530000422094B1A6070BD68010020CC0F2540C1
:10154000C8010020C401002040032540CC01002038
:10155000CD01002008032540C00F254010B5FFF73E
:1015600047F810BD10B5FFF751F810BDF8B50400ED
:101570000F0016000120002C28D0002926D00A25B3
:101580005D43FFF789FF002810D0FFF785FF0500B6
:10159000AE20FFF72FFEFFF77FFF8542F5D1390020
:1015A000AF4200D929003180651807E00120013DD4
:1015B000FFF74EFD002DE4D1102007E0AC4204D02F
:1015C000FFF752FF20700134F8E70020F8BD70B536
:1015D00001230C001500002805D0002903D0FFF7D7
:1015E00077FF00232C80180070BD000002B4714604
:1015F00049084900095C49008E4402BC7047C04656
:1016000003B47146490840004900095E49008E4410
:1016100003BC7047002243088B4274D303098B42FA
:101620005FD3030A8B4244D3030B8B4228D3030CB2
:101630008B420DD3FF22090212BA030C8B4202D354
:101640001212090265D0030B8B4219D300E0090A7C
:10165000C30B8B4201D3CB03C01A5241830B8B4285
:1016600001D38B03C01A5241430B8B4201D34B036E
:10167000C01A5241030B8B4201D30B03C01A5241D3
:10168000C30A8B4201D3CB02C01A5241830A8B4258
:1016900001D38B02C01A5241430A8B4201D34B0241
:1016A000C01A5241030A8B4201D30B02C01A5241A5
:1016B000CDD2C3098B4201D3CB01C01A5241830959
:1016C0008B4201D38B01C01A524143098B4201D393
:1016D0004B01C01A524103098B4201D30B01C01ABE
:1016E0005241C3088B4201D3CB00C01A5241830838
:1016F0008B4201D38B00C01A524143088B4201D365
:101700004B00C01A5241411A00D2014652411046C4
:101710007047FFE701B5002000F006F802BDC046A3
:101720000029F7D076E770477047C046014B18682C
:101730007047C046400100200E4B70B500251E00CA
:101740000D4CE41AA410A54204D0AB00F3589847FE
:101750000135F8E700F0D0FC084B00251E00084CCE
:10176000E41AA410A54204D0AB00F3589847013501
:10177000F8E770BD042100000421000004210000EE
:101780000C210000002310B59A4203D0CC5CC45455
:101790000133F9E710BD03008218934202D019709B
:1017A0000133FAE77047000030B59BB00091049117
:1017B00008496D4602910591012182244942E9813F
:1017C000A4006946AC8100F075F80023009A1370FC
:1017D0001BB030BDFFFFFF7F10B513000A000100F2
:1017E00002480068FFF7E0FF10BDC046400100203E
:1017F000F0B58E6885B007000C00039201939E42FD
:1018000043D890238A89DB001A423ED00325096918
:10181000236801985B1A029363695D43EB0F5D19BE
:10182000029B6D1001331B18AB4200D91D005305FC
:1018300010D52900380000F037FB061E14D0029A9C
:101840002169FFF79FFFA289194B134080221343A0
:10185000A38112E02A00380000F086FB061E0CD19E
:101860002169380000F0D4FA0C23402201203B60AB
:10187000A38940421343A38117E0029B2661F61817
:1018800026606561019EED1AA560019BB34200D2FE
:101890001E0032000399206800F0A5FA0020A3681A
:1018A0009B1BA36023689E19266005B0F0BDC0464F
:1018B0007FFBFFFFF0B59FB0029005938B890F006F
:1018C00016001B0610D50B69002B0DD1402100F02E
:1018D000EBFA38603861002804D10C23029A0138F1
:1018E0001360D8E040237B61002306AD6B61203399
:1018F0006B761033AB7634002378002B03D1A31B17
:10190000049312D003E0252BF9D00134F4E7A31B94
:10191000320039000298FFF76BFF431C00D1B4E09E
:101920006A69049B944663446B612378002B00D161
:10193000ABE00122002352426A6002A954325218DD
:1019400001342B60EB60AB601370AB65534E2178B4
:101950000522300000F03CFA002807D00123801B4C
:1019600083402A68013413432B60EFE72B68DA06C3
:1019700004D55322202102A8121811701A0704D589
:1019800053222B2102A81218117022782A2A03D080
:10199000099B00200A210EE0059A111D126805918D
:1019A000002A01DB099204E05242EA60022213435A
:1019B0002B6001340BE02278303A092A04D84B43DB
:1019C00001349B180120F6E7002800D00993237802
:1019D0002E2B1ED163782A2B0AD1059B02341A1DA7
:1019E0001B680592002B01DA01235B42079310E08C
:1019F00000230A201A0001346B602178303909294C
:101A000004D84243013452180123F6E7002B00D0DA
:101A10000792234E21780322300000F0D9F90028E4
:101A200006D04023801B83402A68013413432B6077
:101A3000217806221B48661C297600F0C9F9002887
:101A400012D0194B002B06D10722059B0733934375
:101A50000833059314E005AB00933A00134B2900BB
:101A6000029800E000BF07E005AB00933A000F4B7F
:101A70002900029800F08AF80390039B013304D0F8
:101A80006B69039A9B186B6135E7BB890B985B0602
:101A900001D5012040421FB0F0BDC046C320000068
:101AA000C9200000CD20000000000000F117000058
:101AB000F7B5170001938A680B6900900C009342F8
:101AC00000DA130022003B6043321278002A01D072
:101AD00001333B6023689B0602D53B6802333B60C1
:101AE000062523681D401ED0230043331B785A1E51
:101AF0009341226892061CD53020E11843310870CA
:101B000021005A1C45310978A21843320233117062
:101B10000FE022000123193201990098089EB04776
:101B2000431C0ED00135E3683A689B1A9D42F0DBF6
:101B3000DAE72200019943320098089DA847431C28
:101B400002D10120404220E006232068E1683A6883
:101B500003400025042B03D18D1AEB43DB171D40F6
:101B6000A3682269934201DD9B1AED180027BD424C
:101B70000AD0220001231A3201990098089EB0472A
:101B8000431CDED00137F2E70020FEBDF0B58BB07C
:101B900006920A0043320793059004920A7E0C00D5
:101BA000109B6E2A00D1ABE011D8632A22D009D84D
:101BB000002A00D1B5E0582A00D0C5E045310A70AE
:101BC000814A4FE0642A1DD0692A1BD0BCE0732AE9
:101BD00000D1AAE009D86F2A29D0702A00D0B3E03A
:101BE000202209680A43226037E0752A1FD0782A2C
:101BF00033D0A9E00E001A684236111D196013682F
:101C00003370A4E021681A68080606D4490604D592
:101C1000111D19600023D55E02E0111D19601568C1
:101C2000002D3BDA2D23049A6D42137036E02168B3
:101C30001A68080606D4490604D51568111D1960EE
:101C4000ADB202E0111D196015685F4B227E03934F
:101C500008276F2A1DD00A271BE022007821453271
:101C600011705A4A19680392081D226818600D689D
:101C7000100602D4500600D5ADB2D30702D52023FA
:101C80001A4322601027002D03D1202322689A4393
:101C900022602300002243331A7002E00A274A4BD5
:101CA00003936368A360002B09DB0422216891433E
:101CB0002160002D05D1049E002B11D07BE0002D6A
:101CC00079D0049E28003900FFF72AFD039B013ECE
:101CD0005B5C280033703900FFF79CFC051EF1D1D6
:101CE000082F09D12368DB0706D563682269934270
:101CF00002DC3023013E3370049B9B1B23612BE0ED
:101D000009681A68080607D4490605D5111D196027
:101D10001368A28A1A8004E0111D196013686269B1
:101D20001A600023049E236116E01A68111D1960D1
:101D3000166800216268300000F04AF8002801D0DF
:101D4000801B6060636803E0260042363270012326
:101D500023610023049A1370079B09AA00932100B2
:101D6000069B0598FFF7A4FE431C02D101204042C8
:101D700027E02369320006990598079DA847431C70
:101D8000F4D0236800259B070FD4099BE068984294
:101D900017DA180015E02200012319320699059878
:101DA000079EB047431CE1D00135E368099A9B1AAE
:101DB0009D42F0DBE9E72600039B42361B78337037
:101DC0008EE70BB0F0BDC046D4200000E520000037
:101DD000C9B28218904204D003788B4202D00130FD
:101DE000F8E70020704710B5884202D98B18984256
:101DF00001D3002305E09B1A013A08D3995C815472
:101E0000FAE7934203D0CC5CC4540133F9E710BD28
:101E100070B50500002944D00C1F2368002B00DAA0
:101E2000E418280000F0D8F81E4A13681100002BAF
:101E300002D16360146031E0A3420DD92268A0187A
:101E4000834203D118685B688218226063600C606B
:101E500024E0A24203D813005A68002AF9D11E6870
:101E60009819A0420BD12168711858181960824244
:101E700014D110685268411819605A600EE0A042EF
:101E800002D90C232B6009E021686018824203D13B
:101E9000106852684118216062605C60280000F0A0
:101EA0009CF870BDA8010020032370B5CD1C9D4394
:101EB000083506000C2D01D20C2501E0002D01DBB8
:101EC000A94202D90C23336048E0300000F084F8C6
:101ED000234B1C681A002100002913D00B685B1BE0
:101EE0000DD40B2B02D90B60CC181EE08C4202D112
:101EF000636813601AE04B6863600C0016E00C0026
:101F00004968E9E7174C2368002B03D1300000F043
:101F100051F820602900300000F04CF8431C18D024
:101F20000323C41C9C43A0420DD12560300000F067
:101F300054F8200007220B30231D9043C31A0ED003
:101F40005A42E2500BE0211A300000F033F8431CF3
:101F5000EBD10C233000336000F03FF8002070BD5F
:101F6000A8010020A4010020F8B506000C0015000F
:101F7000002904D11100FFF797FF040018E0002AA0
:101F800003D1FFF745FF2C0012E000F027F885424F
:101F90000ED929003000FFF787FF071E07D0210068
:101FA0002A00FFF7EFFB21003000FFF731FF3C0074
:101FB0002000F8BD002370B5064C05000800236022
:101FC000FEF7A4FA431C03D12368002B00D02B603A
:101FD00070BDC04610020020704770470B1F1A6882
:101FE000101F002A04DA891804390B68D018043845
:101FF00070470000002200002A00000000000000DE
:10200000F7FF7018B2C0300154144A1378184B10FF
:102010003C57F905F00038200020D80E2B053B6115
:102020000023E023FDC2F7FF7018B2C03001541541
:102030004A1D78184B1AF917F0000020D80C2D090A
:10204000626F6F746C6F6164657220737461727417
:102050000D0A0054686520626F6172642069732004
:102060006E6F74206163746976617465642C20708E
:102070006C6561736520616374697661746520695C
:102080007420776974682074686520616374697668
:10209000652E63796163640D0A000000B5116A253D
:1020A000003C0101D91F5DC38D2AEEDBC9B9AA9B93
:1020B0008E82766B60564D443B332C241D17100ADC
:1020C000044300232D302B2000686C4C00656667AC
:1020D000454647003031323334353637383941429E
:1020E0004344454600303132333435363738396170
:1020F0006263646566000000F8B5C046F8BC08BCC1
:102100009E4670472901000089050000F8B5C046C9
:10211000F8BC08BC9E467047010100003021000059
:10212000B800002090000000D00000000000000077
:102130000000000018020020F41F0000F81F00003B
:10214000010000000000E02EC05D0000180000004B
:1021500000366E01040404000000000000000000CE
:10216000000000000000000000000000000000006F
:102170000000000000000000C1200000000000007E
:10218000000000000000000000000000000000004F
:10219000000000000000000000000000000000003F
:1021A000000000000000000000000000000000002F
:1021B0000000000000000000E0000020000000001F
:1021C000000000000000000000000000000000000F
:1021D00000000000000000000000000000000000FF
:1021E00000000000000000000000000000000000EF
:1021F00000000000000000000000000000000000DF
:102200000040002011220000C7850000C7850000A3
:1022100010B5034B83F3088806F098FA06F0F8F936
:102220000040002070B572B60024414B414A1C604A
:10223000414BC7211A60414B414A1C60414B490048
:102240001C60414B20251C60052313603F4A116030
:102250003F4A136012223F4B1A6006F065FA3020A5
:1022600006F08EFDE8223C4B52011A603B493C4B84
:102270003C481960C021890001603B4818603B4818
:1022800001603B493B4819603B490A603B49196082
:10229000F821490101603A4818603A4804603A4818
:1022A00018603A4802603A4A0D201A60394A1160B3
:1022B000394A3A491A604522394B1D60394B1A6038
:1022C000394B033A1A60394B013A1A60384B0632DF
:1022D0001A60384B013A1A60374B033A1A60374B91
:1022E00001321A60364B043A1A6006F08FFC0D205A
:1022F00006F0B8FC8020334BC0051C6006F02EFAB7
:102300000322314B01201A608022304B12061A60E2
:1023100008222F4B1A602F4B1D6009F0C5FD62B6D5
:1023200006F0D4FD2C49042006F0F8FD70BDC0462F
:1023300000030240FF0F00000004024008030440B5
:10234000000404401803044000030440080404404F
:1023500018040440300010401403014045FF008081
:10236000000001400803014042FF008004030140D7
:1023700041FF0080100301400C03014043FF008037
:1023800044FF00800003014040FF0080180301402B
:1023900046FF00801C03014047FF0080598A00006F
:1023A0002800034048010140300101402C01014058
:1023B000100101400C0101400801014004010140ED
:1023C000000101400C0222403000304000003A4041
:1023D00000033A40000E3F4099BE000010B5064C85
:1023E0002378002B07D1054B002B02D0044800E0D6
:1023F00000BF0123237010BDB801002000000000C1
:10240000C40B0100084B10B5002B03D00749084846
:1024100000E000BF07480368002B00D110BD064B49
:10242000002BFBD09847F9E700000000BC0100201A
:10243000C40B0100B800002000000000F0B50378D4
:1024400085B007000D0002925B09144E032B03D1E7
:102450001349300007F013FA0122124B124C1A7084
:10246000124B2A00390020001D800DF0B5FEA0207F
:102470000021C001615500F031FA0D4BDB6A039376
:1024800098470A4B0B4900229B5E300000932200C4
:10249000029B07F0F4F905B0F0BDC0462010002003
:1024A000900E010048020020D5010020D802002033
:1024B0000C130100AA0E010070B5094C0500094972
:1024C000200007F009FA092D03DC3021200007F075
:1024D00007FA29000A22200007F07AFA70BDC046E8
:1024E00020100020800F010070B503F09FF81A4CF7
:1024F0000A220100200007F06BFA03F0A1F8FFF7B1
:10250000DBFF03F0A7F8FFF7D7FF144D20002900E9
:1025100007F0E2F903F0A8F80A220100200007F012
:1025200057FA2900200007F0D7F903F0A7F80A228C
:102530000100200007F04CFA2900200007F0CCF938
:1025400003F0A6F80A220100200007F041FA20005B
:1025500007F0CCF970BDC046201000205E250100B8
:102560000023024A1370024A13707047CC0E0020F9
:10257000D40E002010B50F4B0F4C10488AB083606A
:1025800023689847E3680E4898470E4B002208934B
:10259000082301200293013B0093079206920592C3
:1025A000049003920190E46913000E21A0470AB041
:1025B00010BDC0463D2400000C130100BC020020E9
:1025C000C0CA8936B80B000010B506211B2009F0DF
:1025D0003BFE00211B2009F045FE102009F010FFF2
:1025E000040001211B20640009F02EFEA0B210BDE2
:1025F00037B5FFF779FFFA20C00009F031FF184B1B
:10260000184C1B78002B12D0FFF7AAFF0123164AA3
:1026100000937321154800F09DF9642009F020FF14
:102620001349200007F058F9124B197812E01249AB
:10263000200007F063F9FFF7C7FF104D104B28701B
:10264000D9780A22200007F095F90E49200007F0FA
:1026500043F929780A22200007F090F937BDC046D7
:10266000480200202010002049020020F40200202F
:10267000E50E0100CC0E0020F20E0100D401002076
:10268000DA020020FB0E010010B5054B1C78FFF7A5
:102690009BFF00210200200000F02AF810BDC04678
:1026A000C00000201FB50D4A01230292E121002243
:1026B0000B4C5B42019200930A4A4902200006F04B
:1026C000F7FD094B1B78002B05D1FFF753FF074996
:1026D000200007F013F9FFF7D7FF1FBD204E0000C1
:1026E000201000202208000048020020FE0E0100F9
:1026F000034B5970002118709970DA707047C0460A
:10270000DA0200207047002070470000030070B517
:1027100040331B7804000E000C4D002B05D0C36B1A
:10272000826B416B280006F05DFF30342800217871
:1027300007F052F82800002106F00EFF31002800B3
:1027400006F00AFF280007F056F870BD841100203B
:1027500010B504000368AE219B6998472368A12146
:102760009B69200098472368C0219B6920009847F7
:102770002368D3219B6920009847236860219B69C7
:10278000200098472368A8219B6920009847236868
:102790003F219B69200098472368D5219B69200031
:1027A0009847236851219B69200098472368DC21C2
:1027B0009B6920009847236800219B692000984767
:1027C000236820219B6920009847236881219B6909
:1027D00020009847236890219B6920009847236830
:1027E000A4219B69200098472368A6219B692000AB
:1027F00098472368AD219B692000984723688A2168
:102800009B69200098472368D9219B69200098473D
:10281000236822219B69200098472368DB219B695C
:1028200020009847236835219B692000984723683A
:10283000AF219B692000984710BD704710B5343018
:102840000EC8024806F0CEFE012010BD8411002003
:1028500010B50400024B036003F0B2F8200010BD75
:102860001C0F010010B50400FFF7F2FF200008F074
:102870005EFA200010BD10B50400007E03282CD89D
:1028800023689B6909F05AFF02041517A12100E093
:10289000A021200098472368C0219B692000984709
:1028A0002368D3219B6920009847236860219B6996
:1028B00011E0A02100E0A121200098472368C82151
:1028C0009B69200098472368D3219B692000984783
:1028D000202123689B692000984710BD70B5060031
:1028E0000D001A20062109F0AFFC00211A2009F082
:1028F000B9FC012009F0B4FD0A4C200002F0DDFE15
:10290000200002F0A4FF084A20003240002102F01B
:1029100065FF200002F025FF002D02D0280009F0FD
:102920009FFD70BDE0020020FFFFFF000D2330B5CA
:1029300085B001AC064D20002370029500F058FFD1
:102940000C2320002370656000F052FF05B030BDFD
:10295000C2000020F0B591B0019316AB1F780023A0
:1029600004AC2000009223700E0000F061FE2E4B9C
:1029700022791B789A4203D02000237100F038FF9F
:10298000FFF7D4FF294B03A91A78294B30001A709E
:1029900000F09CFD07AC274D002807D0264805F025
:1029A00005FE00232370A360A38114E0002F0BD049
:1029B000012323706B461B79A6812371009BA360C2
:1029C0001E4B1B78E37306E06B461B79277023715F
:1029D000009BA681A3602B782000A37301F0B4F8BC
:1029E000011E04D0164805F0E1FD002019E015494C
:1029F0000BA808F0E3FE64210BA808F0D9FF124BE6
:102A00001B68002B0CD00BA808F05CFF05F0A4FBA2
:102A10000BA808F09DFF0D4B5B6E00939847EEE707
:102A2000012011B0F0BDC046F5020020CE0000200C
:102A3000D00000203C0300201D100100CF0000202A
:102A4000F61001003B280000140400200C130100C4
:102A500070B51B4C522306220121200002F0A8FE73
:102A6000184D19492A00200008F05AF9174C200087
:102A700002F058FF164B00212360230040331970E9
:102A80000A000B00200002F0A7FF3A21200002F00C
:102A9000D4FF23003C2230331A700E4B2A00E3632C
:102AA0000123636300230C492000A363E37608F04D
:102AB00037F970BD200002F083FF08F0FBFBC04631
:102AC000E0020020BC0000209D560000F80200201B
:102AD0001C0F010020A10700512800000300F0B5E1
:102AE00040331B7889B000AF0400002B05D0C36BC6
:102AF000826B416B9F4806F075FD0223217E99434E
:102B00000D1E06D00022FD337A61FB61BA611E0002
:102B1000CFE06B466946E28AFB60D31DDB08DB0031
:102B2000CB1A9D46290068463B610DF073FB2900D6
:102B3000668A8AB2B24206D30022FF237A61FB6121
:102B4000BA611D003BE0A38A9C466046CB10584307
:102B5000F861072000231040B86198B2604516D292
:102B6000FD693A695219DD1075437A61A2685218FD
:102B7000555D0722104005412800063A1040BA6909
:102B800090407A69D55C2843D0540133E5E70131A0
:102B9000CFE77B685843301883B2E6683869C05C79
:102BA000F3181E78BB60864213D1BB6801311870E0
:102BB000C9B2A08A8EB28642EBD30132D2B293B2AE
:102BC0007B60638A91B2DB0899421DD20021944652
:102BD000EFE72E1C954200D96646BB69F5B23E7EF2
:102BE000934200D26646F3B2BB61FB693E7F8B42E3
:102BF00000D90E1CF3B2FB617B693E7D8B4200D293
:102C00000E1CF3B27B61D0E7FF2D39D0FB691B09A5
:102C10001033BB60BB69AB4232D329002368503903
:102C2000C9B29B69200098472368B9689B69200056
:102C300098470F222368F9699B6911402000984743
:102C400023004C4E30331978300006F0C5FD3000BB
:102C5000402106F081FCFE697B69B3420AD3A38A56
:102C60003A696B439219D15C4248013606F074FC14
:102C7000F6B2F1E73F48013506F0BDFDEDB2C9E718
:102C8000FB689D4673E063465843281883B2E568A5
:102C9000A068C05CEB181D783B61854212D13B698E
:102CA00001311870C9B2608A8DB28542EBD301320E
:102CB000D2B293B29C46A38ADB089C451DD2002168
:102CC0003A73F0E7351C964200D93D7BBB69EEB202
:102CD0003D7E934200D23D7BEBB2BB61FB693D7F01
:102CE0008B4200D90D1CEBB2FB617B693D7D8B42B1
:102CF00000D20D1CEBB27B61D1E7FB691B091033DD
:102D00003B61BB69B34232D3310023685039C9B249
:102D10009B6920009847236839699B692000984780
:102D20000F222368F9699B6911402000984723000E
:102D3000104D30331978280006F04EFD2800402150
:102D400006F00AFCFD697B69AB420AD3638AA2687C
:102D500073435219D15C0748013506F0FDFBEDB213
:102D6000F1E7044806F047FD731CDEB2C9E7BD4633
:102D700009B0F0BD8411002037B5144B14001A00BF
:102D8000050068462C32127838338270092241706F
:102D900002701B78002B01D00A2303700C4B69468C
:102DA000187801F071F8AAB2A5B283B251198B421A
:102DB00006D20020844208D0934206D3AB4204D30B
:102DC0000020FF238B424041C0B23EBDC004002022
:102DD000E406002000220023F0B57E4999B009786E
:102DE0000A920B930920FF2900D1F1E0002902D1BA
:102DF00079490A604B60794B794A1B7812AC794F5C
:102E00001278E370784B22703A7818685968A2708B
:102E100008F012FE754D764E2A686B682261636178
:102E2000744BA060E1601B7821003078637001F082
:102E30007AF8714900230A8801204042C11780189E
:102E400059412A686B6809F09BFE634D12901391FB
:102E500028606960694B30785B7823743B78A37491
:102E60005F4B1B786374664B1A685B68A260E36013
:102E7000012308AC2100237001F006F843B203934C
:102E8000032321003078237000F0FEFF5B4C099093
:102E900047B204950596564B5A4E1878049B12ADCE
:102EA000009332000AAB290001F044F800280CD14D
:102EB0000122524B03999A56914201D15F7001E071
:102EC000013A5A705B782B74E5E721000122484BE8
:102ED0002D311D78A31CDB7FA2565BB20978280038
:102EE00001F035F8484F227A009741B26368280014
:102EF00000F0F7FF28213E4B444D1878227A6156A6
:102F00000095636800F0EDFF354B1B78002B07D16F
:102F1000A269FB68D3183E4A1360EB68E26912E0CD
:102F200001213C4B61561A783B4B1878FFF724FF80
:102F300003000820002B4BD02269FB68D318344AC9
:102F40001360EB686269D3180A99344A0B9D1360C9
:102F50000D4330D10F2733780022039304ABFF18C1
:102F600000230EAE0C920D932900103230003D70FC
:102F70000DF050F96B461B7B3A00337063783100DB
:102F800073702378B370236B7360636BB360244BEF
:102F90001B88B381059B18780CAB00F0B8FF214B60
:102FA00008209B6B0393984780231F4A28001168D1
:102FB0000B4313600CE010231B4A1C4C10680343A6
:102FC0002000136008F0F4FC200008F07BFC0020D7
:102FD00019B0F0BD89030020A00600203D030020A9
:102FE00030040020D206002068030020B80400202E
:102FF000E40600206805002044030020C0040020EF
:10300000D80600208A030020A80600203C050020E6
:10301000E00600201004002094050020400300205A
:10302000660500200C130100140400205005002048
:1030300007B5054B5B6B0193002801D1080000E048
:103040000020984707BDC0460C13010070B5194811
:1030500008F07EFC184B19491B7819480B70194B66
:1030600000785A6A0C004A601A002D3212781D004E
:103070000A741A00383212784A740122CA7402287B
:1030800002D000238B7400E08A740F4B0F4A18782B
:103090000432210000F030FF002806D0A07CE9684F
:1030A000FFF7C6FF01220A4B1A7000210948FFF7FB
:1030B00015FC70BD6C0500208A0300203C05002033
:1030C00038050020C0040020E4060020480300204A
:1030D000600300200050500010B5FFF7B7FF022238
:1030E000014B1A7010BDC04660030020F0B58FB0D0
:1030F000059314AB07921A8800230691C64DC74961
:103100000A930B702B80059BC54C591E8B4101788F
:103110005B42217000781A40C24FD3B240093B7025
:1031200009F016FB0800750148007501450075019E
:10313000750167010123E0182B80BB4B0822196839
:1031400005F05EF82888B94B083080B2196808226B
:103150002880201805F054F82B88002608332B808F
:1031600005F024F8B24B82B21A802B88120AE05480
:10317000991C01339BB2E254AE4A89B229800AAB52
:10318000C9B21268200000F057FE2B880A9A591C19
:10319000100A89B2E2546054991C89B2100C605430
:1031A000191D03339BB2120E2980E25430E1012233
:1031B0009A4B1A70A04B07261B78002B00D127E1F1
:1031C000069B01241B789D4DF3400BA94B702B6887
:1031D0000C704B609A4B9B485A7800780A721A78A8
:1031E0004A721A002C3212788A721A19009500F06D
:1031F0006BFE069B0440A0011C7840239C43069B69
:1032000004431C70904B1A78002A06D000221A70D2
:103210002032E3B21343069A13708C4F804C3B6804
:103220008B4E1A0A6370A2701A0C1B0E2371069B38
:10323000E2701B78874D637133682878A3711B0A8D
:10324000E371854B85491A78854B181804F0CFFF38
:10325000814B2A781B780599D218D2B22A70089728
:1032600009967F4D7F4B00292AD06E4801780029AE
:1032700026D01B780821002B2DD00F2A1AD80F201A
:10328000069B1B781907090F5118014083430B4314
:10329000069928000B706371002391B29DB2A94278
:1032A00004D91E5CE5182E720133F7E711000831CE
:1032B000C9B210E000230793694B027005930AE03E
:1032C0000821002A07D01B78002B04D0554B059508
:1032D0001A70002307930025624B1D702B009A4241
:1032E00029D95F48C65CF01E072821D809F026FAC4
:1032F0001E20041C1E122004681CC0B284466746AF
:10330000564801334655564EDBB2F65C0235EDB2F7
:10331000C6550DE0681C84460820504E70556D4619
:10332000604628762D7E03E0023300E00133DBB2F5
:103330000133DBB2D3E7484B1D70002D02D00122D0
:10334000484B1A70059B002B34D0364A1378002B5B
:1033500030D06E464D1CEDB23148367F5B19465475
:10336000FB2B03DD05235B425B1B1370079B002BCC
:1033700010D16A46374B127F1A702A4B3A4A197895
:1033800063190293324B1B680193079B0093089BC0
:103390001B680BE0234B354A1978631902932C4BB9
:1033A0001B68019300230093089B1B68059800F09D
:1033B000D3FC290000261B4B174D1B782A4A5918AD
:1033C0000AAB29800293099B20001B680096019399
:1033D000089B1B6800F07CFC2A880A9BA354190AEE
:1033E000A41861700432190C1B0EA170E3702A80BE
:1033F0000EE0059E311E0BD00026B34208D0D2B29B
:10340000601C04F0F4FE3B7801332B8000E00226C0
:1034100030000FB0F0BDC0466605002064050020F6
:1034200096050020940500208C03002090050020C4
:10343000C00600209C0600203004002088050020E3
:10344000C0040020E4060020710300208C05002049
:10345000BC06002010040020950600203104002046
:10346000900300207803002079030020C20600208A
:10347000F0B5124D85B02D7803AC012D01D10F357B
:1034800000E0002525700E4D27782E781F25F601C7
:103490003D4035432570009313000A002100FFF7DB
:1034A00025FE002807D1074A074B1268587118718A
:1034B0001A61FFF78FFC05B0F0BDC046380500204B
:1034C00070030020BC06002018040020F0B50B2675
:1034D0008DB004ABF6184C4B4C4D1B7807AC3370D9
:1034E000012304900F0028782100237000F0CCFC09
:1034F0000021474A2B0051561500814200D201009D
:103500001170032218782100227000F0BDFC002306
:10351000EB56834200D903000A213E4A5BB2137086
:103520003D4A04AC12782B700919002A01D03B4B9C
:103530005B780B700323002F62D0394B0A24197873
:10354000384B47B21B78314DCB18DBB203930023C5
:1035500009A94A70344A0B7013684B6004ABE41835
:1035600023780B722D4B18782C3348721B782878EF
:103570008B7233000A260092220000F0A5FC05950C
:103580000021039A61560498FFF7F6FB002834D116
:10359000224D07A92B002C331B788B7023784B709E
:1035A00009230B702B0038331B78002B00D00E70D2
:1035B000059B187800F068FC174B1B78002B07D090
:1035C0000122AA5697421ADD013252B26A7007E010
:1035D0000022104B9A56974211DD013252B21A70F6
:1035E00022700022A256C3B20192013A00920499BD
:1035F000039A0E4804F0DAFFC2E7002300E0082334
:1036000018000DB0F0BDC046FC040020E406002008
:10361000D00000203C03002070030020C0040020E4
:103620001004002095060020880500205F1201008C
:1036300013B504000320002C77D020781E286CD806
:1036400009F07CF8101217191B1F212325282A2D99
:1036500035333F4346494C4F525459575B5D5F6B7E
:1036600061646700314B00E0314B1B78237100200F
:103670005BE0304BF9E7304B00E0304B1B68636098
:10368000F5E72F4BFBE72F4BF9E72F4BEDE72F4BE0
:103690003833EAE719230BE004342C4B01E02C4BC0
:1036A0000434243306CB06C4E1E7172300E01623D5
:1036B0006A461370274B6946187800F0E5FB606096
:1036C000D5E7224B0133DB7FD0E7204BDB68D6E721
:1036D0001E4B1B69D3E71D4B5B69D0E71B4B9B69F6
:1036E000CDE71A4BDB69CAE7194B00E0174B5B7853
:1036F000BCE7174BB9E7154BB7E7174BBEE7174BBE
:10370000BCE7174BBAE7114B5B68B8E70F4B1B7A66
:10371000ACE70E4B5B6B6360A9E7044B02201B78A0
:10372000012B02D1200000F0CDFA16BD3805002093
:103730003004002070030020800500208C0500204C
:1037400079030020C206002084050020C004002068
:10375000FC040020E4060020BC06002074030020C6
:103760009806002070B504000320002C16D00C4BE6
:1037700002381D68054011D1200000F0A7FA094B5E
:1037800065621868A563002801D11C6006E0836BA0
:10379000002B01D01800FAE78463180070BDC04602
:1037A000140400209806002002000320002A19D0EB
:1037B0000D4B02381B68034214D10C490B68181ECC
:1037C00010D09A4205D1936B0B6008E08A4204D076
:1037D0000B00996B0029F9D101E0916B99630023EB
:1037E000180093637047C046140400209806002018
:1037F000F0B5040087B0002800D17AE10120BE4B6B
:103800001B68034200D075E120781E2800D967E1CB
:1038100008F09EFF1F0058005B0060006300670017
:103820006E0077007F0066018300CC00EE00E100AF
:10383000F300FB00FF00030107010B010F011D0155
:103840003A012C0148014B015E0162014E01540115
:103850005A01AA4E25793478012C21D0002C02D0AF
:10386000022C25D045E1012D1AD0022D00D040E1D7
:10387000A34B35701C70A34BDB6A03939847A24B94
:10388000A2481900A24D283109781A7A00780095CB
:1038900049B25B6800F025FBFFF71EFC200029E120
:1038A000280000F00DFA002800D023E1357021E156
:1038B000002D00D01DE1934B3570DB6A03939847D0
:1038C000280017E12279934B01E02279924B1A707C
:1038D00000200FE16268914B01E06268904B1A6032
:1038E000F6E76168002900D103E110228D4805E068
:1038F0006168002900D1FCE010228B4804F077FCBD
:10390000E6E72079894B18707E4BDB6D039398476F
:10391000DEE77D4B22793833D9E77B4D237A2F00C0
:1039200004A90B702D37794E3B78307806224B7006
:1039300000F0B6FA002800D1DBE02800211D243079
:1039400008220CF049FC6D4B1B78022BC0D1714B47
:103950001B78002BBCD028216D4C2A7A6956307810
:1039600000946B6800F0BDFA714B1B7823706B6A92
:1039700063603B7823742B0038331B786374012316
:10398000E374A3745F4BDB6A03939847694A30780A
:103990000432210000F0B0FA002800D1A9E0A07C98
:1039A000E968FFF745FBE27C634B90E7237A04A9C3
:1039B0000B70554B06222D331B784B70534B1878E8
:1039C00000F06EFA002800D193E05C4B04342433FD
:1039D00006CC06C37CE7636804A9049301230B713A
:1039E0004A4B187800F067FA002800D181E06FE7B1
:1039F000636804A904930023F1E72279531E0E2B78
:103A000077D8414B0133DA7762E762683E4BDA6080
:103A10005EE762683C4B1A615AE762683A4B5A614A
:103A200056E76268384B9A6152E76268364BDA6152
:103A30004EE7237904AD2B70344B0522187829000A
:103A400000F02EFA002854D02A783C4B0CE0237961
:103A500004AD2B702D4B04221878290000F020FAB9
:103A6000002846D02A78284B5A7031E7237904ADD4
:103A70002B70264B08221878290000F011FA002834
:103A800037D02A782D4B22E7237904AD2B701F4BBA
:103A900007221878290000F003FA002829D02A7894
:103AA000194B14E76268264B19E76268254B16E745
:103AB0006368224A5360144A536009E723791F4A16
:103AC0001372114A137203E762680F4B5A63FFE6E1
:103AD0006068FFF747FE0DE06068FFF765FE09E0EC
:103AE000064B02201B78012B04D1200000F0ECF8DB
:103AF00000E0032007B0F0BD1404002038050020CA
:103B0000640500200C130100C0040020E40600201E
:103B10003C050020300400207003002080050020B8
:103B20008C05002079030020C206002084050020B7
:103B30008A0300204803002060030020FC040020CA
:103B4000BC06002074030020F0B5040089B00028F2
:103B500001D103259CE0504B01251E6811231E4016
:103B600000D095E04D4F04AB1822310038001E7094
:103B700004F052FB4A4B7D701D702378AB421DD080
:103B8000002B13D0032B31D12022464B52421D7003
:103B900004AB1B782F00134304AA137063680093CF
:103BA000238901930A23E356029320E03D4B1D70C5
:103BB00004AB1A781F231340402208E0E27B394B04
:103BC0001A7004AB1A781F23134080225242134309
:103BD00004AA1370A36826790093A389012701938F
:103BE0000E23E3560293E02EB3D801E037000026FF
:103BF000012306AD2B702C4B29001B78AB702B4B8F
:103C0000187800F041F903232B70274B03901B78A1
:103C10002900AB70254B187800F036F9244D079039
:103C2000002F34D0234B1B78002B1AD1029B039A10
:103C3000934200D21300079A5BB29A4200D91A004D
:103C40002B0005AF3A702C331B780422BB70174B46
:103C50003900187800F024F9002800D179E73B7882
:103C60006B70019B009A310004A8FFF701FC00284B
:103C700008D101212278094B1A700F4A13780B439F
:103C8000137002E000220D4B1A70050000E00225BF
:103C9000280009B0F0BDC04614040020180400201C
:103CA000D8000020D9000020EC040020E406002009
:103CB000C00400207003002095050020640500204A
:103CC00002207047022070470220704770470000B2
:103CD000F7B50E000700019208AA1C4C1178099A4A
:103CE0006171190A1A4DA371E171190C1B0E6372EF
:103CF000130A2800A272E372130C120E237362736C
:103D0000E673217204F014F92800019904F01FF9F8
:103D100028002100102204F022F9F2B23900280014
:103D200004F01DF90B4C2900200004F070F96278B2
:103D30002078A378120202431B0413431A00E3788D
:103D40001B0613430A9A1360F7BDC046DA00002031
:103D5000E806002001090020F0B585B01D00334FB2
:103D60000AAB1B7802900E0001920021F02238006D
:103D70000B9C039304F050FA3A001021019803F0D1
:103D80000BFF6A462A4B127B9D715A712A0ADA711F
:103D90002A0C1A72220A2D0E9C72DA72220C240E40
:103DA0005D725C73350001241A7323000F331B010D
:103DB000DBB201930F2D19D91E4F1D481B4A390044
:103DC000C47303F06FFF00230C9A019901985118F6
:103DD000029A1218D05CDA5D4240CA540133102BAB
:103DE000F2D1103D0134ADB2E4B2DEE733091C017B
:103DF000341B1F01A4B2FFB20133002C13D00D4DB0
:103E00000B480A4A2900C37303F04CFF00230C9AA5
:103E1000D119029AD219D05CEA5C4240CA540133EB
:103E20009AB29442F3D805B0F0BDC0461008002005
:103E3000EA00002000080020F7B507000D00104C34
:103E40001E002000019204F073F80199200004F094
:103E50007EF8EAB23900200004F081F8094D210013
:103E6000280004F0D4F86A782878AB78120202436C
:103E70001B0413431A00EB781B0613433360F7BD92
:103E8000E80600200109002007B5022804D1080037
:103E900000F06AF8019001E00023019301980EBD43
:103EA00010B50B00022804D11100180000F0E6F84C
:103EB00000E0002010BD10B5022803D1080000F07A
:103EC000FFF800E0002010BD10B50400080011004C
:103ED0001A00022C03D1029B00F00AF900E0002036
:103EE00010BD10B50400080011001A00022C02D108
:103EF000029B00F03FF910BD10B50B00022804D161
:103F00001100180000F06CF900E0002010BD10B5A1
:103F1000040008001100022C03D11A0000F0F8F987
:103F200000E0002010BD10B5022802D1080000F00A
:103F300059FA10BD10B50400080011001A00022C37
:103F400003D1029B00F080FA00E0002010BD10B504
:103F5000040008001100022C03D11A0000F01CFB21
:103F600000E0D0B210BD000007B5002203000078C9
:103F7000009203382F2865D808F0E0FB1864186415
:103F800064642327642C2E313436383B64456447FF
:103F9000494B4D64644F511A64646464646464649E
:103FA000646464646464565E60625454052348E04B
:103FB00001229A5600239A4201D0013AD3B25BB251
:103FC0003FE05B78204A5BB202E05B781F4A5BB25D
:103FD000D35C36E01E4B34E0FA239B0031E0FA2339
:103FE000DB002EE01B4B2CE01B4B2AE08023DB0187
:103FF00027E0FA211948890004F0EEF8FA23DB00E3
:10400000C01800901EE0164B1BE0164B19E0164B33
:1040100017E0602315E0154B13E0154B00E0154B3E
:1040200000930FE030230CE06A4613231370103B1B
:104030005370023B937005E0022302E00E4B00E058
:104040000823009300980EBDCA120100CA12010095
:10405000B80B0000881300007017000018FCFFFF69
:1040600020441E1E12090020A00D0020200900205F
:10407000333399419A990940400D030010B5062940
:104080000DD002D804290AD217E008290BD931290A
:1040900013D12F2300788342804140420EE0007804
:1040A000052240B202E00722007840B2002100F071
:1040B0008DFA431E9841C0B200E0002010BD000000
:1040C00010B50479002C05D0012C0AD10168062214
:1040D000054802E006220168044800F0A1FA012028
:1040E00000E0002010BDC046A00D002012090020F5
:1040F000F0B5050085B001920820092200240F00C8
:1041000069682856AA5619606978A1422AD0A04247
:1041100001D1186025E06B683F2B23D95F2B1CD998
:104120001F261E40012E18D11E2302AA50701370A4
:10413000AB7A10009370FFF717FF40B200280CD144
:104140002B78002B0CD00122094B52421A805A8046
:104150009A80DA801A815A8102E02200012401E06B
:104160000200040038702000019B1A7005B0F0BDF9
:1041700012090020F0B587B00491144986001C0094
:104180005870134F735815000122BB4204D0114AD6
:104190009B185A4253415A000F4BA270185C895920
:1041A00000F0D8FA0D4B06001B6E0F0005939847E0
:1041B000230008340C330293009001942B00049ADE
:1041C0003000390000F0E0FA07B0F0BDD012010075
:1041D00090D00300E05EF8FFE81201000C1301002C
:1041E000F0B50127404E91B073680B91C75704009A
:1041F0000A93456898470023984272D1E37C002BCC
:1042000008D12078302108F033FB384BCDB25D4324
:10421000374BED18374B2800DB570A93F3680C93A4
:104220009847E37C0822052B35D10A980AF0EEFE68
:104230000B0080210200C905002001F0D1FD2E4BAA
:10424000050018680E000AF023FF0C900D91012064
:104250000A9B98400AF0DAFE00220E900F91274B3D
:10426000280031000AF0AEF802000B000E980F99FA
:1042700009F084FC0022224B0AF0A4F80022214B12
:1042800009F050F902000B000C980D9909F076FC2A
:1042900008F0BAFC82B2A37C012009930023124DDE
:1042A000079306930593049303930093AB692689C0
:1042B0000C93029601920300A17808900A9A0C9E32
:1042C000B047637C002B01D00F4B00E00F4BD95D52
:1042D000AB6D0D31C9B201200A9398470B9B1F703B
:1042E0000123180011B0F0BD0C130100400D0300B4
:1042F000E0F8D11DE8120100D40000208084FE40C7
:1043000000408F400000F03FCA120100CA120100B5
:104310000123F0B591B00D910C92C3562D4A0400C3
:10432000D35602781F000C2353432B4A6946D318F7
:104330005B7A2A4A5B01D31882782F209B78091870
:104340000B705BB251B28B4202DA6B461B181A70CB
:104350006B462F2200209B186168A268185600F057
:104360006DFA0C2322780E9053431D4A0025D26823
:1043700001260F92184A98580F9B9847FA231B0161
:10438000089310230293164B2A00DB6900970F93C2
:104390000E992B0030000795069505950496039518
:1043A00001960F9FB8470E4B217B9B6D30000E93FB
:1043B00098470B4B217B5B6A30000E9398476A4607
:1043C0002F210C9B521821C330000D9B12781A70BC
:1043D00011B0F0BDE812010020090020000100200A
:1043E0000C130100F7B50378C47805000193144E4F
:1043F000002B18D1C168806800F0D6F80C23634305
:10440000104C019FE3185C7A01225242D3176401D9
:10441000341906002869696992197B4108F0B0FBDC
:10442000A061E1610AE00C236343064AD3185C7A79
:1044300000226301F4180023A261E361F7BDC046C6
:104440000001002020090020F0B5A3B009910392DB
:104450000021602204000AA81E000BF0DBFE4B4D79
:1044600006220021280000F0BCF8002807D1012313
:104470005B422B806B80AB80EB802B816B81A068D3
:10448000E1686568276807F0D7FA8D424FD801D1F7
:1044900087424CD800220023326073600123A17C44
:1044A000607C3B4A00F0CAF8002610270490059172
:1044B000E75701960296F400B31C079323001033CC
:1044C00006930894314B089AF35AA21A1341012219
:1044D000134224D00C2363432E4DED182B68002B80
:1044E0001DD0297A38004AB209071211091700F0C5
:1044F0006DF8002813D06B7A254A5B01D3189A69AE
:10450000DB691A4304D002980130C3B2029306E07B
:10451000019B019901330AAADBB254540193069B13
:1045200001349C42CED1079E0C2EC4D10AE0A06873
:10453000E1682668676807F07FFA361A8F410496AB
:10454000059714E0019B002B0ED0190000200139C3
:1045500003F042FE0AAB1B5C099A03991370002218
:1045600000230A604B6007E0029B002B06D0039AF1
:10457000049B059C13605460012005E00022002389
:10458000039902980A604B6023B0F0BD1209002025
:1045900000010020200900208A1A52B2101C002AB3
:1045A00000DA0020C0B27047002905D1054B9842BF
:1045B00004D9054B984203D9032002E0012000E012
:1045C000022070477FEE36007F3F5C0210B504008A
:1045D00000208C4204DBE00FD317A2425841C0B246
:1045E00010BDF7B5060001920024002817D0019BEA
:1045F000994213D200254B009F5B2B000120A8405D
:1046000002003A40904201D10133DBB20135102D56
:10461000F4D1E3180131DCB2C9B2E8E72000FEBDF5
:1046200010B5002809D0002907D00023520093427A
:1046300003D0CC5AC4520233F9E710BDF0B55B0188
:10464000083387B0D3181400049301225242D317C1
:104650000D000092019305900834049BA34200D101
:1046600073E0059B002B35D12068616807F0E4F901
:1046700007000E00002D63D0A068E16807F0DCF9A8
:104680008E4202D804D1874202D92068616801E0D5
:10469000A068E16807F0D0F90023039363690290F2
:1046A000002B06D12369834203D800220023226114
:1046B000636122696369110019433FD0029803992D
:1046C000121A8B410199994236D837D100999142FB
:1046D00034D931E0002D2BD0A068E16866692769E4
:1046E00007F0AAF98E4206D801D1874203D80022EA
:1046F0000023226163612669676933003B431DD053
:10470000A068E16807F098F9361A8F41019BBB4217
:1047100003D813D1009BB34210D9A068E168266981
:10472000676907F089F9361A8F410096019705E00D
:1047300000220023226163610092019320348CE700
:1047400006432800002EA7D09FE70098019907B0E4
:10475000F0BD000001238340D0B518000C000AF022
:1047600055FC060020000F000AF092FC02000B002E
:104770003000390009F002FA0022024B09F022FE53
:10478000D0BDC04600408F40F0B504000D00101FA2
:1047900085B04000009203930AF038FC22002B0001
:1047A00009F010FE039B060058000F000AF070FC91
:1047B00002000B003000390008F0B4FE2B0022008C
:1047C00009F0DCF901F03CF908F01EFA009B060044
:1047D000984200D21E000B9B00221E602000154B49
:1047E000290009F0EFFD0090019130000AF050FC23
:1047F00022002B0009F0E6FD00220F4B09F0E2FD3C
:1048000002000B00009801990AF056F804000A987B
:104810000D000AF03DFC02000B00200029000AF008
:104820004BF801F00DF90AF0BBFB0C9B186005B0CA
:10483000F0BDC046000010400000E03F70B54000F1
:10484000141C0D1C08F030FE011C281C08F084FC10
:10485000211C08F081FC0AF053FC01F087F90AF0F2
:104860009FFB40B270BD0120704710B5002002F0E0
:10487000D9FD10BD144B10B51860144802F0F0FEBD
:10488000002002F0CFFD012002F061FE00210800AF
:1048900003F062F80421002002F040FF0023190019
:1048A00018001A0002F0A2FE09490A4806F086FF25
:1048B00009490A4806F082FF09480A4906F07EFFC6
:1048C0000020094B187010BDC80E0020514C00008C
:1048D000714A0000EC0E0020914A0000000F0020F9
:1048E000B00D0020B14A0000AC0D002010B502F060
:1048F000F9FC0338C3B20020022B01D8014AD05C76
:1049000010BDC0468814010010B502F0CFFE10BDE6
:1049100010B503F02BF810BD07B56B46D8710733FF
:10492000180002F005FD07BD002370B50C0010490A
:104930001A000500080002F059FE02F0E9FE0D4BD6
:10494000012801D17F3300E078331C700A4802F05F
:1049500091FF00222800210002F08AFD074C084B3D
:104960002000196807F024F8200006F0ABFF70BDA6
:10497000010200003C0F0020AC0F0020EC0E0020D4
:10498000C40E002010B5042002F034FD022007F010
:1049900067FD10BD10B502F09DFD10BD37B5164B7B
:1049A0000424A8331D781235EDB20F2809D8013C34
:1049B000072806D8013C032803D801238342A441D9
:1049C0006442C021002349001A00080002F00EFED4
:1049D00000230A2200932900200002F0A5FF02F024
:1049E00091FDFA21054CC900200006F0E1FF2000EE
:1049F00006F068FF37BDC0463C0F0020B00D002018
:104A000070B50D00140002F051FE280002F0FCFB0E
:104A100002F084FD20000AF0F9FA0022064B09F0AA
:104A2000D1FC08F0F1F8054C0100200006F0C0FFB1
:104A3000200006F047FF70BD00408F40000F0020AF
:104A400010B502F03DFB10BD10B502F077FB10BDB4
:104A500010B592B202F004FB10BD10B592B202F094
:104A600039FB10BD10B502F057FA033010BD00003D
:104A700010B5002002F03CFC044B1B68002B03D057
:104A80005B68002B00D0984710BDC046C80E0020C0
:104A900010B5002002F02CFC044B1B68002B03D047
:104AA000DB68002B00D0984710BDC046C80E002020
:104AB00010B5002002F01CFC044B1B68002B04D036
:104AC0009B69002B01D00020984710BDC80E002024
:104AD000F7B5544D544C2B78002B00D19BE00026A9
:104AE00002F09BFB2E7002F09AFB02F093FD050092
:104AF0004E4802F0C3FFEB070FD54D4806F028FFE4
:104B0000300002F0F5FB4B4B1B68B34203D01B682F
:104B1000B34200D0984701232370AB0725D5464800
:104B200003F044FD454806F013FF6B46444FD91D82
:104B3000FF22380002F04AFF424E300002F060FFD0
:104B40003C4B1B68002B0ED09B689C46002B0AD068
:104B50006B0608D40D230C226946F356B256C97968
:104B600038006646B047022323706B0609D5314BE7
:104B70001B68002B03D01B69002B00D09847032330
:104B800023702B060ED5304806F0E2FE294B1B6839
:104B9000002B05D09B69002B02D0E805C00F984779
:104BA00004232370AB0527D502F09CFB04280FD10A
:104BB0001F4806F0CDFE002002F09AFB1D4B1B683B
:104BC000002B03D05B68002B00D09847052312E030
:104BD00002F088FB05280FD1184806F0B9FE002026
:104BE00002F086FB134B1B68002B03D0DB68002B05
:104BF00000D0984706232370AB060CD50F4806F06B
:104C0000A7FE0C4B1B68002B03D0DB68002B00D0E9
:104C10009847072323702378002B01D00B4A137089
:104C2000F7BDC046AC0D0020D40E0020FFFF0000F1
:104C3000EC0E0020C80E002000130100000F002021
:104C4000C40D0020D80E0020B00D0020CC0E002096
:104C5000012210B5024B1A70FFF73AFF10BDC04693
:104C6000AC0D0020012210B50849D3001C00083CFF
:104C70000C59844202D85C58A04203D30132162A50
:104C8000F3D1FEE7CB18187910BDC0467C130100A4
:104C900010B50A4B012803D1094A7F33117007E090
:104CA0001A0077321278012A06D1054A783311703A
:104CB0001970044802F0DEFD10BDC0463C0F002014
:104CC00020010020AC0F00200023104970B51A000D
:104CD0000500080002F08AFC002D07D00C4C2900CA
:104CE000200006F065FE200006F0ECFD094B1B7865
:104CF000002B04D0002002F021FC074802E0074B03
:104D00001868800102F0BCFB70BDC0464202000082
:104D1000000F0020D50E0020FFFFFF00D00E002066
:104D20000023022170B51A000500080002F05EFCA5
:104D3000002D07D0094C2900200006F039FE200084
:104D400006F0C0FD064B1B78002B01D0054802E0A1
:104D5000054B1868800102F0A5FB70BD000F002014
:104D6000D50E0020FFFFFF00D00E002010B5094C2B
:104D7000012805D0002002F0BDFC0023637008E08C
:104D800002F0B8FC20786378834202D0607000F0B3
:104D900003F810BD140F00200D4B10B5040018705F
:104DA00058700120FFF7E2FF002C06D0E8203421E4
:104DB000C00002F085F9442105E0E8201421C0007C
:104DC00002F07EF92421034802F07AF910BDC046B2
:104DD000140F002041070000F8B50C0016001D005C
:104DE000FFF7C4FF200002F061FC0020FFF76CFF1A
:104DF000012007F035FB06F013FE07000024380001
:104E0000210006F019FE8C4209D1854207D902F033
:104E1000ADFD00B28642F1DA0028EFD000E00124B7
:104E2000FFF7B0FD2000F8BD70B500250120FFF7A9
:104E30009DFF002002F024FB2C000126012007F03A
:104E40000FFB02F093FD3040A84001350443202DB4
:104E5000F4D103F0ABF90419FFF794FD200070BD05
:104E600070B50A2805D8084BC000181804684568B2
:104E700001E000240025012088400AF0C7F82B003B
:104E8000220008F07BFE70BD30140100F0B589B03F
:104E900004930FAB1B881500019310AB1E8811AB58
:104EA0001B780F00029312AB1A7813AB1B7806A97C
:104EB000039321235B18DB7F0400059325235B18F4
:104EC000D97F724B19700299714B002900D1FF22D2
:104ED0001A70002C02D0012C7DD0D4E0200002F00A
:104EE00024FB6C4B0B211A00983214701A009C3270
:104EF00015601A00A43211701C001F20002F02D070
:104F00003800FFF7AFFE23002200A53318700023FE
:104F100070321370019AD100220072321180220087
:104F20000421743211702200143175321170220084
:104F300076321370012223000299773351401970A1
:104F40002300534978330978197023000399793382
:104F5000002900D0F1321A70230001227A339834EC
:104F60001A70FFF782FC2078431E9841C0B2FFF709
:104F7000FDFE200002F02AFC474802F07BFC0822DC
:104F8000464906A80BF028F906A802F0D1F94448D2
:104F900002F012FA28000AF07BF802000B00002051
:104FA000404908F0EBFD00223F4B09F00BFA0400EA
:104FB00030000D000AF02AF802000B002000290042
:104FC00009F000FA394B002209F0FCF907F01CFE49
:104FD000374B186057E0002002F0A7FAF0B202F059
:104FE000ADFA2C4EEDB2330098331C703300A83369
:104FF0001D70304B6A46D85D3300A93318703300FA
:10500000127CAA3329001A70FFF72AFF2A4B2B4A79
:1050100007F052FD3300AB33002801D01C7000E0D4
:105020001870330001227033053D1A70954206D87E
:10503000019B0B2B03D833000B327C3303E06A4611
:10504000330092887C331A806A463300127A7E33AA
:105050001A7033000E4A7F33127801201A706A46A4
:105060003300127B80331A706B461B7D81363370A0
:10507000FFF77CFE124802F0A9FB074802F0FAFB9A
:10508000104A0B4B1A6009B0F0BDC046D50E002087
:10509000200100203C0F0020AC0F0020EE12010088
:1050A000FF0100000000F03F0000204000408F4062
:1050B000D00E0020F612010047613040E17A14AEB4
:1050C000D40F0020FFFF0000F0B587B007000EA846
:1050D00006880FA800781400009010A800780CAA89
:1050E000019013A80291007802CA03901278002F51
:1050F00002D0012F56D0A7E0574D1F202A0098322A
:1051000017702A009C3211602A000B21A432117002
:10511000002B02D01800FFF7A5FD2B00A533187057
:105120002B002A00A0331C600023703213702A0069
:10513000F600723216802A000421743211702A009F
:105140001431753211702A007632137001222B004F
:1051500000997733514019702B0001997933002958
:1051600000D0F1321A702B0001227A3398351A7070
:10517000FFF77BFB2878431E9841C0B2FFF7F6FD8E
:10518000280002F023FB354802F074FB0822344962
:1051900004A80BF021F804A802F0CAF8314802F084
:1051A0000BF951E02C4CCDB221002000A8310D703C
:1051B0002D4998300770C85C2300A933187023006C
:1051C0002900AA331A70FFF74BFE284B284A07F034
:1051D00073FC2300AB33002801D01F7000E018706F
:1051E000230001227033053D1A70954206D80B2E1C
:1051F00004D823000B327C331A8002E0164B7C3338
:105200001E806A46230012787E331A702300194AE2
:105210007F3312781A706A462300127980331A702D
:105220006A462300127B813398341A70FFF71DFB06
:105230002078431E9841C0B2FFF798FD200002F08D
:10524000C5FA064802F016FB029801F0DDFF0A4B92
:10525000149A1A6007B0F0BD3C0F0020AC0F00207C
:10526000EE120100FF010000F6120100476130401C
:10527000E17A14AE20010020C40E0020F0B50E002B
:1052800085B0002802D0012848D0B7E05D4F3B0030
:10529000753318783B0072331B88C008C01809F0BA
:1052A000B5FE0B0039007731097802000020002993
:1052B00001D0554900E0002108F034F90400300025
:1052C0000D0009F0A3FE02000B002000290008F0E9
:1052D00029F90B00390079310978020000200229F0
:1052E00001D0002101E08021C90508F01BF900224E
:1052F000464B09F067F89C37040038680D0009F048
:10530000C7FE02000B002000290008F037FC002235
:105310003F4B09F057F800F0C1FC6CE0394C7600C7
:105320002300A8331D782300A93318782900FFF73C
:1053300097FD2300009001917C33188809F066FEE8
:105340000022344B08F0EEF8009A019B09F03AF87D
:1053500023000290039180331B78701B9B00073061
:10536000C01823007E331A7880001423012A00D04D
:105370000023C01A09F04AFEAB34060020780F0063
:10538000431E98414000281A800009F03FFE0200A9
:105390000B003000390008F0F1FB00F051FB194B15
:1053A0000400AA33187803230D001840043009F0D4
:1053B0002DFE22002B0009F005F800220023040036
:1053C0000D0007F06FFB0022104B002805D02000D5
:1053D000290008F0A7F802000B000098019908F0D6
:1053E000F1FF029A039B08F09DF80B4A0B4B08F063
:1053F00099F800F0BBFB07F007FC00E0002005B0C7
:10540000F0BDC0463C0F00200000F03F00002040EF
:1054100000408F40000011402B8716D9CEF7EF3F98
:10542000F7B50D003C21040007F022FA2000297096
:105430003C2107F097F93C2107F01AFA6970E12145
:105440002000090107F08EF9182107F011FA200059
:10545000A9703A4907F086F900240090072104302A
:1054600007F006FA27000131E970354BFE180323D7
:105470003340019310D16421300007F0E3FA002992
:105480000DD19131FF31300007F0DCFA4B1E99410C
:10549000B7235B00591A04E06E21FF3101E0B72108
:1054A0004900009B6418A34202D30137FFB2DCE736
:1054B000019BAF71002B10D16421300007F0C2FABC
:1054C00000290DD19131FF31300007F0BBFA4B1E9E
:1054D0009941B7235B00591A04E06E21FF3101E0C6
:1054E000B7214900009B641A300064211C1B07F09F
:1054F000A9FA0F00C8213000490007F0A3FA4A1E9C
:1055000091411D220023511AD8B2012B08D1019ECE
:105510001C22002E06D10132002F03D10A0001E027
:10552000084A9A5CA24204D80133A41A0C2BEBD18E
:1055300018000130013468712C71F7BD80510100F1
:10554000B20700008B14010070B5054D04002B68F4
:10555000834203D00349FFF763FF2C6070BDC04650
:10556000180F00201C0F002010B5FFF7EDFF024BB5
:105570009879024BC01810BD1C0F0020B207000024
:105580000222074B10B51860064B1B681818064B13
:105590001860064B1A7006F067FF054B186010BDC7
:1055A000240F002024010020340F0020280F0020A9
:1055B000300F002070B506F057FF1549154A0B68EB
:1055C000154CC01A904207D9226801322260FA2293
:1055D00092009B180B60EEE7104D22682B689342F7
:1055E00013D80F4B1B68002B0FD09847002802D010
:1055F000FFF7C6FF09E00B4B22681B68D3180A4A65
:105600002B601378591E8B411370206870BDC04603
:10561000300F0020E7030000240F0020340F00208B
:105620002C0F002024010020280F002010B5FFF7C8
:10563000C1FFFFF789FF014B987810BD1C0F0020B8
:1056400010B5FFF7B7FFFFF77FFF014B587810BD8C
:105650001C0F002010B5FFF7ADFFFFF775FF014BE2
:10566000187810BD1C0F002010B5FFF7A3FFFFF73F
:105670006BFF014B187910BD1C0F002010B5FFF710
:1056800099FFFFF761FF014B587910BD1C0F0020F7
:1056900010B5FFF78FFFFFF767FF10BD10B50400CF
:1056A00080680AF08FFD06202056002803DBC0B278
:1056B000012106F0C9FD200010BD10B50400062030
:1056C0002056002807DBC0B2062106F0BDFDA079F8
:1056D000002106F0C7FD0123637010BD70B5050001
:1056E00080680E000AF06EFDEB7B2C7B1C1B634276
:1056F0005C4104231C1B7443A4B2AC8020000AF05C
:1057000057FDA860002805D0220000210AF082FD84
:105710006E8001E0A880688070BDC37B027B70B59D
:105720009A1A54425441E2B203248B110D118E1087
:105730002640234025400C4046738473FF260024F6
:105740008E4264418168C37305730470002907D0D9
:105750005B1B5C425C41944202D04188FFF7BEFF74
:1057600070BD816810B5002906D072B603788288B2
:10577000807906F059FA62B610BD70B5437804001E
:105780000D00002B07D006202056002803DBC0B2F6
:10579000012106F059FD6378A571002B07D0062181
:1057A000280006F051FD0021280006F05BFD70BDC9
:1057B00070B51500002204000E004270C2718260B4
:1057C00002611900FFF7A9FF31002000FFF786FFF3
:1057D00029002000FFF7D1FF200070BD4388F7B5F6
:1057E0008B4233D9C379150C140A002B04D1E4B2CF
:1057F000EDB20194D6B20AE0FF26344035405C4356
:1058000016405D435E43240A2D0A0194360A077B45
:10581000B446C67B3C008768B44203D10323594396
:105820007F180AE089007F18120EBE19002B01D1E3
:10583000D3B201E053431B0A33706A46037B1279EB
:10584000FD54437BFA546246837BFA54F7BD10B58E
:105850000021828880680AF0DDFC10BD7047704727
:10586000704700207047000043B202000C49002B33
:1058700002DB00230B7010E00B780870C22B0DD0F8
:10588000C32B08D00020822B08D1AC3A1000424232
:105890005041C00102E0C0231A4310007047C046C7
:1058A000380F0020F8B5038C0400002B38D00D29E8
:1058B00036D00800E36A9847051E31D0628C268CEA
:1058C000A38CE18CB2420CD28B420CD2A36A9854C6
:1058D000638C013363840A2822D1A38C0133A3840F
:1058E0001EE08B4201D3013BA384002399B28A427C
:1058F0000DD9A06AC75C01330A2FF7D1013189B2F3
:10590000521A92B2628441180AF066FC03E0B24275
:1059100001D300236384236829009B6820009847F3
:105920000120F8BD0C4A002308320260FF224274B5
:105930007F3A4282403A82828022D200C282012291
:105940008276064A4360C261054A03760374437651
:10595000C2628360C360704798140100CC140100D8
:105960006958000070B585680400002D09D0C67E16
:10597000002E06D103685B699847281A0AF022FCBA
:10598000A660E568002D0AD0E67E002E07D12368C8
:1059900020005B699847281A0AF014FCE660A06AA8
:1059A000002803D00AF00EFC0023A3621120205629
:1059B000431C03D0C0B2002106F046FC70BD0000BD
:1059C00010B50400034B08330360FFF7CBFF200042
:1059D00010BDC0469814010010B5040001740529DB
:1059E00025D8080006F0AAFE03070C140F1980231F
:1059F0006382403B02E080236382603BA38216E027
:105A0000C8236382FAE794235B006382A83BF5E72F
:105A100080235B006382803BF0E78021002A00D076
:105A2000110061824022002B00D01A00A282628AFB
:105A3000A38A5343DB10E38210BD4174704700001A
:105A4000444AF8B5564692464B005B0D9A4444468C
:105A50005F464D465246F0B4884605000C000E00E5
:105A60000700132A27DC002A59DB52463A4B134120
:105A700099460B004A461340034316D0374A384B29
:105A800007F050FD0022002307F00CF800280AD090
:105A9000002C04DD802352465B03134198444646A4
:105AA0004B4600279E43380031003CBC9046994647
:105AB000A246AB46F8BD5246332A08DD8023DB0000
:105AC0009A45F2D102000B0007F02CFDEDE7254AC4
:105AD0009446012263445242DA4093460242E4D0A3
